{"contracts/NftAuctionV2.sol":{"NftAuctionV2":{"abi":[{"inputs":[],"name":"InvalidInitialization","type":"error"},{"inputs":[],"name":"NotInitializing","type":"error"},{"anonymous":false,"inputs":[{"indexed":false,"internalType":"uint64","name":"version","type":"uint64"}],"name":"Initialized","type":"event"},{"inputs":[],"name":"admin","outputs":[{"internalType":"address","name":"","type":"address"}],"stateMutability":"view","type":"function"},{"inputs":[{"internalType":"uint256","name":"","type":"uint256"}],"name":"auctions","outputs":[{"internalType":"address","name":"seller","type":"address"},{"internalType":"uint256","name":"startPrice","type":"uint256"},{"internalType":"uint256","name":"startTime","type":"uint256"},{"internalType":"uint256","name":"duration","type":"uint256"},{"internalType":"bool","name":"ended","type":"bool"},{"internalType":"address","name":"highestBidder","type":"address"},{"internalType":"uint256","name":"highestBid","type":"uint256"},{"internalType":"address","name":"nftContract","type":"address"},{"internalType":"uint256","name":"tokenId","type":"uint256"}],"stateMutability":"view","type":"function"},{"inputs":[{"internalType":"uint256","name":"_startPrice","type":"uint256"},{"internalType":"uint256","name":"_duration","type":"uint256"},{"internalType":"address","name":"_nftContract","type":"address"},{"internalType":"uint256","name":"_tokenId","type":"uint256"}],"name":"createAuction","outputs":[],"stateMutability":"nonpayable","type":"function"},{"inputs":[],"name":"initialize","outputs":[],"stateMutability":"nonpayable","type":"function"},{"inputs":[],"name":"nextAuctionId","outputs":[{"internalType":"uint256","name":"","type":"uint256"}],"stateMutability":"view","type":"function"},{"inputs":[{"internalType":"uint256","name":"_auctionId","type":"uint256"}],"name":"placeBid","outputs":[],"stateMutability":"payable","type":"function"},{"inputs":[],"name":"testHello","outputs":[{"internalType":"string","name":"","type":"string"}],"stateMutability":"pure","type":"function"}],"devdoc":{"errors":{"InvalidInitialization()":[{"details":"The contract is already initialized."}],"NotInitializing()":[{"details":"The contract is not initializing."}]},"events":{"Initialized(uint64)":{"details":"Triggered when the contract has been initialized or reinitialized."}},"kind":"dev","methods":{},"version":1},"evm":{"bytecode":{"linkReferences":{},"object":"6080604052348015600f57600080fd5b506111b18061001f6000396000f3fe6080604052600436106100705760003560e01c8063b1cb48ef1161004e578063b1cb48ef146100ed578063c97c635314610116578063f851a44014610141578063fc5284821461016c57610070565b8063571a26a0146100755780638129fc1c146100ba5780639979ef45146100d1575b600080fd5b34801561008157600080fd5b5061009c60048036038101906100979190610a56565b610197565b6040516100b199989796959493929190610aee565b60405180910390f35b3480156100c657600080fd5b506100cf610252565b005b6100eb60048036038101906100e69190610a56565b610418565b005b3480156100f957600080fd5b50610114600480360381019061010f9190610ba7565b610679565b005b34801561012257600080fd5b5061012b610973565b6040516101389190610c9e565b60405180910390f35b34801561014d57600080fd5b506101566109b0565b6040516101639190610cc0565b60405180910390f35b34801561017857600080fd5b506101816109d6565b60405161018e9190610cdb565b60405180910390f35b60006020528060005260406000206000915090508060000160009054906101000a900473ffffffffffffffffffffffffffffffffffffffff16908060010154908060020154908060030154908060040160009054906101000a900460ff16908060040160019054906101000a900473ffffffffffffffffffffffffffffffffffffffff16908060050154908060060160009054906101000a900473ffffffffffffffffffffffffffffffffffffffff16908060070154905089565b600061025c6109dc565b905060008160000160089054906101000a900460ff1615905060008260000160009054906101000a900467ffffffffffffffff1690506000808267ffffffffffffffff161480156102aa5750825b9050600060018367ffffffffffffffff161480156102df575060003073ffffffffffffffffffffffffffffffffffffffff163b145b9050811580156102ed575080155b15610324576040517ff92ee8a900000000000000000000000000000000000000000000000000000000815260040160405180910390fd5b60018560000160006101000a81548167ffffffffffffffff021916908367ffffffffffffffff16021790555083156103745760018560000160086101000a81548160ff0219169083151502179055505b33600260006101000a81548173ffffffffffffffffffffffffffffffffffffffff021916908373ffffffffffffffffffffffffffffffffffffffff16021790555083156104115760008560000160086101000a81548160ff0219169083151502179055507fc7f505b2f371ae2175ee4913f4499e1f2633a7b5936321eed1cdaeb6115181d260016040516104089190610d4f565b60405180910390a15b5050505050565b600080600083815260200190815260200160002090508060040160009054906101000a900460ff1615610480576040517f08c379a000000000000000000000000000000000000000000000000000000000815260040161047790610db6565b60405180910390fd5b806003015481600201546104949190610e05565b42106104d5576040517f08c379a00000000000000000000000000000000000000000000000000000000081526004016104cc90610e85565b60405180910390fd5b8060050154341161051b576040517f08c379a000000000000000000000000000000000000000000000000000000000815260040161051290610f17565b60405180910390fd5b80600101543411610561576040517f08c379a000000000000000000000000000000000000000000000000000000000815260040161055890610fa9565b60405180910390fd5b600073ffffffffffffffffffffffffffffffffffffffff168160040160019054906101000a900473ffffffffffffffffffffffffffffffffffffffff1673ffffffffffffffffffffffffffffffffffffffff1614610629578060040160019054906101000a900473ffffffffffffffffffffffffffffffffffffffff1673ffffffffffffffffffffffffffffffffffffffff166108fc82600501549081150290604051600060405180830381858888f19350505050158015610627573d6000803e3d6000fd5b505b338160040160016101000a81548173ffffffffffffffffffffffffffffffffffffffff021916908373ffffffffffffffffffffffffffffffffffffffff1602179055503481600501819055505050565b600260009054906101000a900473ffffffffffffffffffffffffffffffffffffffff1673ffffffffffffffffffffffffffffffffffffffff163373ffffffffffffffffffffffffffffffffffffffff1614610709576040517f08c379a000000000000000000000000000000000000000000000000000000000815260040161070090611015565b60405180910390fd5b6000841161074c576040517f08c379a0000000000000000000000000000000000000000000000000000000008152600401610743906110a7565b60405180910390fd5b6000831161078f576040517f08c379a000000000000000000000000000000000000000000000000000000000815260040161078690611113565b60405180910390fd5b6040518061012001604052803373ffffffffffffffffffffffffffffffffffffffff168152602001858152602001428152602001848152602001600015158152602001600073ffffffffffffffffffffffffffffffffffffffff168152602001600081526020018373ffffffffffffffffffffffffffffffffffffffff16815260200182815250600080600154815260200190815260200160002060008201518160000160006101000a81548173ffffffffffffffffffffffffffffffffffffffff021916908373ffffffffffffffffffffffffffffffffffffffff16021790555060208201518160010155604082015181600201556060820151816003015560808201518160040160006101000a81548160ff02191690831515021790555060a08201518160040160016101000a81548173ffffffffffffffffffffffffffffffffffffffff021916908373ffffffffffffffffffffffffffffffffffffffff16021790555060c0820151816005015560e08201518160060160006101000a81548173ffffffffffffffffffffffffffffffffffffffff021916908373ffffffffffffffffffffffffffffffffffffffff16021790555061010082015181600701559050506001600081548092919061096890611133565b919050555050505050565b60606040518060400160405280601281526020017f48656c6c6f2c204e667441756374696f6e210000000000000000000000000000815250905090565b600260009054906101000a900473ffffffffffffffffffffffffffffffffffffffff1681565b60015481565b6000806109e76109f0565b90508091505090565b60007ff0c57e16840df040f15088dc2f81fe391c3923bec73e23a9662efc9c229c6a0060001b905090565b600080fd5b6000819050919050565b610a3381610a20565b8114610a3e57600080fd5b50565b600081359050610a5081610a2a565b92915050565b600060208284031215610a6c57610a6b610a1b565b5b6000610a7a84828501610a41565b91505092915050565b600073ffffffffffffffffffffffffffffffffffffffff82169050919050565b6000610aae82610a83565b9050919050565b610abe81610aa3565b82525050565b610acd81610a20565b82525050565b60008115159050919050565b610ae881610ad3565b82525050565b600061012082019050610b04600083018c610ab5565b610b11602083018b610ac4565b610b1e604083018a610ac4565b610b2b6060830189610ac4565b610b386080830188610adf565b610b4560a0830187610ab5565b610b5260c0830186610ac4565b610b5f60e0830185610ab5565b610b6d610100830184610ac4565b9a9950505050505050505050565b610b8481610aa3565b8114610b8f57600080fd5b50565b600081359050610ba181610b7b565b92915050565b60008060008060808587031215610bc157610bc0610a1b565b5b6000610bcf87828801610a41565b9450506020610be087828801610a41565b9350506040610bf187828801610b92565b9250506060610c0287828801610a41565b91505092959194509250565b600081519050919050565b600082825260208201905092915050565b60005b83811015610c48578082015181840152602081019050610c2d565b60008484015250505050565b6000601f19601f8301169050919050565b6000610c7082610c0e565b610c7a8185610c19565b9350610c8a818560208601610c2a565b610c9381610c54565b840191505092915050565b60006020820190508181036000830152610cb88184610c65565b905092915050565b6000602082019050610cd56000830184610ab5565b92915050565b6000602082019050610cf06000830184610ac4565b92915050565b6000819050919050565b600067ffffffffffffffff82169050919050565b6000819050919050565b6000610d39610d34610d2f84610cf6565b610d14565b610d00565b9050919050565b610d4981610d1e565b82525050565b6000602082019050610d646000830184610d40565b92915050565b7f41756374696f6e20686173206265656e20656e64656400000000000000000000600082015250565b6000610da0601683610c19565b9150610dab82610d6a565b602082019050919050565b60006020820190508181036000830152610dcf81610d93565b9050919050565b7f4e487b7100000000000000000000000000000000000000000000000000000000600052601160045260246000fd5b6000610e1082610a20565b9150610e1b83610a20565b9250828201905080821115610e3357610e32610dd6565b5b92915050565b7f41756374696f6e2074696d652068617320657870697265640000000000000000600082015250565b6000610e6f601883610c19565b9150610e7a82610e39565b602082019050919050565b60006020820190508181036000830152610e9e81610e62565b9050919050565b7f426964206d75737420626520686967686572207468616e2063757272656e742060008201527f6869676865737420626964000000000000000000000000000000000000000000602082015250565b6000610f01602b83610c19565b9150610f0c82610ea5565b604082019050919050565b60006020820190508181036000830152610f3081610ef4565b9050919050565b7f426964206d757374206265206174206c6561737420746865207374617274696e60008201527f6720707269636500000000000000000000000000000000000000000000000000602082015250565b6000610f93602783610c19565b9150610f9e82610f37565b604082019050919050565b60006020820190508181036000830152610fc281610f86565b9050919050565b7f4f6e6c792061646d696e2063616e206372656174652061756374696f6e730000600082015250565b6000610fff601e83610c19565b915061100a82610fc9565b602082019050919050565b6000602082019050818103600083015261102e81610ff2565b9050919050565b7f5374617274207072696365206d7573742062652067726561746572207468616e60008201527f2030000000000000000000000000000000000000000000000000000000000000602082015250565b6000611091602283610c19565b915061109c82611035565b604082019050919050565b600060208201905081810360008301526110c081611084565b9050919050565b7f4475726174696f6e206d7573742062652067726561746572207468616e203000600082015250565b60006110fd601f83610c19565b9150611108826110c7565b602082019050919050565b6000602082019050818103600083015261112c816110f0565b9050919050565b600061113e82610a20565b91507fffffffffffffffffffffffffffffffffffffffffffffffffffffffffffffffff82036111705761116f610dd6565b5b60018201905091905056fea2646970667358221220cdf57675addab507dc396fb997f0a6f9feb66947fa5e0600e57e563fbfa4641e64736f6c634300081c0033","opcodes":"PUSH1 0x80 PUSH1 0x40 MSTORE CALLVALUE DUP1 ISZERO PUSH1 0xF JUMPI PUSH1 0x0 DUP1 REVERT JUMPDEST POP PUSH2 0x11B1 DUP1 PUSH2 0x1F PUSH1 0x0 CODECOPY PUSH1 0x0 RETURN INVALID PUSH1 0x80 PUSH1 0x40 MSTORE PUSH1 0x4 CALLDATASIZE LT PUSH2 0x70 JUMPI PUSH1 0x0 CALLDATALOAD PUSH1 0xE0 SHR DUP1 PUSH4 0xB1CB48EF GT PUSH2 0x4E JUMPI DUP1 PUSH4 0xB1CB48EF EQ PUSH2 0xED JUMPI DUP1 PUSH4 0xC97C6353 EQ PUSH2 0x116 JUMPI DUP1 PUSH4 0xF851A440 EQ PUSH2 0x141 JUMPI DUP1 PUSH4 0xFC528482 EQ PUSH2 0x16C JUMPI PUSH2 0x70 JUMP JUMPDEST DUP1 PUSH4 0x571A26A0 EQ PUSH2 0x75 JUMPI DUP1 PUSH4 0x8129FC1C EQ PUSH2 0xBA JUMPI DUP1 PUSH4 0x9979EF45 EQ PUSH2 0xD1 JUMPI JUMPDEST PUSH1 0x0 DUP1 REVERT JUMPDEST CALLVALUE DUP1 ISZERO PUSH2 0x81 JUMPI PUSH1 0x0 DUP1 REVERT JUMPDEST POP PUSH2 0x9C PUSH1 0x4 DUP1 CALLDATASIZE SUB DUP2 ADD SWAP1 PUSH2 0x97 SWAP2 SWAP1 PUSH2 0xA56 JUMP JUMPDEST PUSH2 0x197 JUMP JUMPDEST PUSH1 0x40 MLOAD PUSH2 0xB1 SWAP10 SWAP9 SWAP8 SWAP7 SWAP6 SWAP5 SWAP4 SWAP3 SWAP2 SWAP1 PUSH2 0xAEE JUMP JUMPDEST PUSH1 0x40 MLOAD DUP1 SWAP2 SUB SWAP1 RETURN JUMPDEST CALLVALUE DUP1 ISZERO PUSH2 0xC6 JUMPI PUSH1 0x0 DUP1 REVERT JUMPDEST POP PUSH2 0xCF PUSH2 0x252 JUMP JUMPDEST STOP JUMPDEST PUSH2 0xEB PUSH1 0x4 DUP1 CALLDATASIZE SUB DUP2 ADD SWAP1 PUSH2 0xE6 SWAP2 SWAP1 PUSH2 0xA56 JUMP JUMPDEST PUSH2 0x418 JUMP JUMPDEST STOP JUMPDEST CALLVALUE DUP1 ISZERO PUSH2 0xF9 JUMPI PUSH1 0x0 DUP1 REVERT JUMPDEST POP PUSH2 0x114 PUSH1 0x4 DUP1 CALLDATASIZE SUB DUP2 ADD SWAP1 PUSH2 0x10F SWAP2 SWAP1 PUSH2 0xBA7 JUMP JUMPDEST PUSH2 0x679 JUMP JUMPDEST STOP JUMPDEST CALLVALUE DUP1 ISZERO PUSH2 0x122 JUMPI PUSH1 0x0 DUP1 REVERT JUMPDEST POP PUSH2 0x12B PUSH2 0x973 JUMP JUMPDEST PUSH1 0x40 MLOAD PUSH2 0x138 SWAP2 SWAP1 PUSH2 0xC9E JUMP JUMPDEST PUSH1 0x40 MLOAD DUP1 SWAP2 SUB SWAP1 RETURN JUMPDEST CALLVALUE DUP1 ISZERO PUSH2 0x14D JUMPI PUSH1 0x0 DUP1 REVERT JUMPDEST POP PUSH2 0x156 PUSH2 0x9B0 JUMP JUMPDEST PUSH1 0x40 MLOAD PUSH2 0x163 SWAP2 SWAP1 PUSH2 0xCC0 JUMP JUMPDEST PUSH1 0x40 MLOAD DUP1 SWAP2 SUB SWAP1 RETURN JUMPDEST CALLVALUE DUP1 ISZERO PUSH2 0x178 JUMPI PUSH1 0x0 DUP1 REVERT JUMPDEST POP PUSH2 0x181 PUSH2 0x9D6 JUMP JUMPDEST PUSH1 0x40 MLOAD PUSH2 0x18E SWAP2 SWAP1 PUSH2 0xCDB JUMP JUMPDEST PUSH1 0x40 MLOAD DUP1 SWAP2 SUB SWAP1 RETURN JUMPDEST PUSH1 0x0 PUSH1 0x20 MSTORE DUP1 PUSH1 0x0 MSTORE PUSH1 0x40 PUSH1 0x0 KECCAK256 PUSH1 0x0 SWAP2 POP SWAP1 POP DUP1 PUSH1 0x0 ADD PUSH1 0x0 SWAP1 SLOAD SWAP1 PUSH2 0x100 EXP SWAP1 DIV PUSH20 0xFFFFFFFFFFFFFFFFFFFFFFFFFFFFFFFFFFFFFFFF AND SWAP1 DUP1 PUSH1 0x1 ADD SLOAD SWAP1 DUP1 PUSH1 0x2 ADD SLOAD SWAP1 DUP1 PUSH1 0x3 ADD SLOAD SWAP1 DUP1 PUSH1 0x4 ADD PUSH1 0x0 SWAP1 SLOAD SWAP1 PUSH2 0x100 EXP SWAP1 DIV PUSH1 0xFF AND SWAP1 DUP1 PUSH1 0x4 ADD PUSH1 0x1 SWAP1 SLOAD SWAP1 PUSH2 0x100 EXP SWAP1 DIV PUSH20 0xFFFFFFFFFFFFFFFFFFFFFFFFFFFFFFFFFFFFFFFF AND SWAP1 DUP1 PUSH1 0x5 ADD SLOAD SWAP1 DUP1 PUSH1 0x6 ADD PUSH1 0x0 SWAP1 SLOAD SWAP1 PUSH2 0x100 EXP SWAP1 DIV PUSH20 0xFFFFFFFFFFFFFFFFFFFFFFFFFFFFFFFFFFFFFFFF AND SWAP1 DUP1 PUSH1 0x7 ADD SLOAD SWAP1 POP DUP10 JUMP JUMPDEST PUSH1 0x0 PUSH2 0x25C PUSH2 0x9DC JUMP JUMPDEST SWAP1 POP PUSH1 0x0 DUP2 PUSH1 0x0 ADD PUSH1 0x8 SWAP1 SLOAD SWAP1 PUSH2 0x100 EXP SWAP1 DIV PUSH1 0xFF AND ISZERO SWAP1 POP PUSH1 0x0 DUP3 PUSH1 0x0 ADD PUSH1 0x0 SWAP1 SLOAD SWAP1 PUSH2 0x100 EXP SWAP1 DIV PUSH8 0xFFFFFFFFFFFFFFFF AND SWAP1 POP PUSH1 0x0 DUP1 DUP3 PUSH8 0xFFFFFFFFFFFFFFFF AND EQ DUP1 ISZERO PUSH2 0x2AA JUMPI POP DUP3 JUMPDEST SWAP1 POP PUSH1 0x0 PUSH1 0x1 DUP4 PUSH8 0xFFFFFFFFFFFFFFFF AND EQ DUP1 ISZERO PUSH2 0x2DF JUMPI POP PUSH1 0x0 ADDRESS PUSH20 0xFFFFFFFFFFFFFFFFFFFFFFFFFFFFFFFFFFFFFFFF AND EXTCODESIZE EQ JUMPDEST SWAP1 POP DUP2 ISZERO DUP1 ISZERO PUSH2 0x2ED JUMPI POP DUP1 ISZERO JUMPDEST ISZERO PUSH2 0x324 JUMPI PUSH1 0x40 MLOAD PUSH32 0xF92EE8A900000000000000000000000000000000000000000000000000000000 DUP2 MSTORE PUSH1 0x4 ADD PUSH1 0x40 MLOAD DUP1 SWAP2 SUB SWAP1 REVERT JUMPDEST PUSH1 0x1 DUP6 PUSH1 0x0 ADD PUSH1 0x0 PUSH2 0x100 EXP DUP2 SLOAD DUP2 PUSH8 0xFFFFFFFFFFFFFFFF MUL NOT AND SWAP1 DUP4 PUSH8 0xFFFFFFFFFFFFFFFF AND MUL OR SWAP1 SSTORE POP DUP4 ISZERO PUSH2 0x374 JUMPI PUSH1 0x1 DUP6 PUSH1 0x0 ADD PUSH1 0x8 PUSH2 0x100 EXP DUP2 SLOAD DUP2 PUSH1 0xFF MUL NOT AND SWAP1 DUP4 ISZERO ISZERO MUL OR SWAP1 SSTORE POP JUMPDEST CALLER PUSH1 0x2 PUSH1 0x0 PUSH2 0x100 EXP DUP2 SLOAD DUP2 PUSH20 0xFFFFFFFFFFFFFFFFFFFFFFFFFFFFFFFFFFFFFFFF MUL NOT AND SWAP1 DUP4 PUSH20 0xFFFFFFFFFFFFFFFFFFFFFFFFFFFFFFFFFFFFFFFF AND MUL OR SWAP1 SSTORE POP DUP4 ISZERO PUSH2 0x411 JUMPI PUSH1 0x0 DUP6 PUSH1 0x0 ADD PUSH1 0x8 PUSH2 0x100 EXP DUP2 SLOAD DUP2 PUSH1 0xFF MUL NOT AND SWAP1 DUP4 ISZERO ISZERO MUL OR SWAP1 SSTORE POP PUSH32 0xC7F505B2F371AE2175EE4913F4499E1F2633A7B5936321EED1CDAEB6115181D2 PUSH1 0x1 PUSH1 0x40 MLOAD PUSH2 0x408 SWAP2 SWAP1 PUSH2 0xD4F JUMP JUMPDEST PUSH1 0x40 MLOAD DUP1 SWAP2 SUB SWAP1 LOG1 JUMPDEST POP POP POP POP POP JUMP JUMPDEST PUSH1 0x0 DUP1 PUSH1 0x0 DUP4 DUP2 MSTORE PUSH1 0x20 ADD SWAP1 DUP2 MSTORE PUSH1 0x20 ADD PUSH1 0x0 KECCAK256 SWAP1 POP DUP1 PUSH1 0x4 ADD PUSH1 0x0 SWAP1 SLOAD SWAP1 PUSH2 0x100 EXP SWAP1 DIV PUSH1 0xFF AND ISZERO PUSH2 0x480 JUMPI PUSH1 0x40 MLOAD PUSH32 0x8C379A000000000000000000000000000000000000000000000000000000000 DUP2 MSTORE PUSH1 0x4 ADD PUSH2 0x477 SWAP1 PUSH2 0xDB6 JUMP JUMPDEST PUSH1 0x40 MLOAD DUP1 SWAP2 SUB SWAP1 REVERT JUMPDEST DUP1 PUSH1 0x3 ADD SLOAD DUP2 PUSH1 0x2 ADD SLOAD PUSH2 0x494 SWAP2 SWAP1 PUSH2 0xE05 JUMP JUMPDEST TIMESTAMP LT PUSH2 0x4D5 JUMPI PUSH1 0x40 MLOAD PUSH32 0x8C379A000000000000000000000000000000000000000000000000000000000 DUP2 MSTORE PUSH1 0x4 ADD PUSH2 0x4CC SWAP1 PUSH2 0xE85 JUMP JUMPDEST PUSH1 0x40 MLOAD DUP1 SWAP2 SUB SWAP1 REVERT JUMPDEST DUP1 PUSH1 0x5 ADD SLOAD CALLVALUE GT PUSH2 0x51B JUMPI PUSH1 0x40 MLOAD PUSH32 0x8C379A000000000000000000000000000000000000000000000000000000000 DUP2 MSTORE PUSH1 0x4 ADD PUSH2 0x512 SWAP1 PUSH2 0xF17 JUMP JUMPDEST PUSH1 0x40 MLOAD DUP1 SWAP2 SUB SWAP1 REVERT JUMPDEST DUP1 PUSH1 0x1 ADD SLOAD CALLVALUE GT PUSH2 0x561 JUMPI PUSH1 0x40 MLOAD PUSH32 0x8C379A000000000000000000000000000000000000000000000000000000000 DUP2 MSTORE PUSH1 0x4 ADD PUSH2 0x558 SWAP1 PUSH2 0xFA9 JUMP JUMPDEST PUSH1 0x40 MLOAD DUP1 SWAP2 SUB SWAP1 REVERT JUMPDEST PUSH1 0x0 PUSH20 0xFFFFFFFFFFFFFFFFFFFFFFFFFFFFFFFFFFFFFFFF AND DUP2 PUSH1 0x4 ADD PUSH1 0x1 SWAP1 SLOAD SWAP1 PUSH2 0x100 EXP SWAP1 DIV PUSH20 0xFFFFFFFFFFFFFFFFFFFFFFFFFFFFFFFFFFFFFFFF AND PUSH20 0xFFFFFFFFFFFFFFFFFFFFFFFFFFFFFFFFFFFFFFFF AND EQ PUSH2 0x629 JUMPI DUP1 PUSH1 0x4 ADD PUSH1 0x1 SWAP1 SLOAD SWAP1 PUSH2 0x100 EXP SWAP1 DIV PUSH20 0xFFFFFFFFFFFFFFFFFFFFFFFFFFFFFFFFFFFFFFFF AND PUSH20 0xFFFFFFFFFFFFFFFFFFFFFFFFFFFFFFFFFFFFFFFF AND PUSH2 0x8FC DUP3 PUSH1 0x5 ADD SLOAD SWAP1 DUP2 ISZERO MUL SWAP1 PUSH1 0x40 MLOAD PUSH1 0x0 PUSH1 0x40 MLOAD DUP1 DUP4 SUB DUP2 DUP6 DUP9 DUP9 CALL SWAP4 POP POP POP POP ISZERO DUP1 ISZERO PUSH2 0x627 JUMPI RETURNDATASIZE PUSH1 0x0 DUP1 RETURNDATACOPY RETURNDATASIZE PUSH1 0x0 REVERT JUMPDEST POP JUMPDEST CALLER DUP2 PUSH1 0x4 ADD PUSH1 0x1 PUSH2 0x100 EXP DUP2 SLOAD DUP2 PUSH20 0xFFFFFFFFFFFFFFFFFFFFFFFFFFFFFFFFFFFFFFFF MUL NOT AND SWAP1 DUP4 PUSH20 0xFFFFFFFFFFFFFFFFFFFFFFFFFFFFFFFFFFFFFFFF AND MUL OR SWAP1 SSTORE POP CALLVALUE DUP2 PUSH1 0x5 ADD DUP2 SWAP1 SSTORE POP POP POP JUMP JUMPDEST PUSH1 0x2 PUSH1 0x0 SWAP1 SLOAD SWAP1 PUSH2 0x100 EXP SWAP1 DIV PUSH20 0xFFFFFFFFFFFFFFFFFFFFFFFFFFFFFFFFFFFFFFFF AND PUSH20 0xFFFFFFFFFFFFFFFFFFFFFFFFFFFFFFFFFFFFFFFF AND CALLER PUSH20 0xFFFFFFFFFFFFFFFFFFFFFFFFFFFFFFFFFFFFFFFF AND EQ PUSH2 0x709 JUMPI PUSH1 0x40 MLOAD PUSH32 0x8C379A000000000000000000000000000000000000000000000000000000000 DUP2 MSTORE PUSH1 0x4 ADD PUSH2 0x700 SWAP1 PUSH2 0x1015 JUMP JUMPDEST PUSH1 0x40 MLOAD DUP1 SWAP2 SUB SWAP1 REVERT JUMPDEST PUSH1 0x0 DUP5 GT PUSH2 0x74C JUMPI PUSH1 0x40 MLOAD PUSH32 0x8C379A000000000000000000000000000000000000000000000000000000000 DUP2 MSTORE PUSH1 0x4 ADD PUSH2 0x743 SWAP1 PUSH2 0x10A7 JUMP JUMPDEST PUSH1 0x40 MLOAD DUP1 SWAP2 SUB SWAP1 REVERT JUMPDEST PUSH1 0x0 DUP4 GT PUSH2 0x78F JUMPI PUSH1 0x40 MLOAD PUSH32 0x8C379A000000000000000000000000000000000000000000000000000000000 DUP2 MSTORE PUSH1 0x4 ADD PUSH2 0x786 SWAP1 PUSH2 0x1113 JUMP JUMPDEST PUSH1 0x40 MLOAD DUP1 SWAP2 SUB SWAP1 REVERT JUMPDEST PUSH1 0x40 MLOAD DUP1 PUSH2 0x120 ADD PUSH1 0x40 MSTORE DUP1 CALLER PUSH20 0xFFFFFFFFFFFFFFFFFFFFFFFFFFFFFFFFFFFFFFFF AND DUP2 MSTORE PUSH1 0x20 ADD DUP6 DUP2 MSTORE PUSH1 0x20 ADD TIMESTAMP DUP2 MSTORE PUSH1 0x20 ADD DUP5 DUP2 MSTORE PUSH1 0x20 ADD PUSH1 0x0 ISZERO ISZERO DUP2 MSTORE PUSH1 0x20 ADD PUSH1 0x0 PUSH20 0xFFFFFFFFFFFFFFFFFFFFFFFFFFFFFFFFFFFFFFFF AND DUP2 MSTORE PUSH1 0x20 ADD PUSH1 0x0 DUP2 MSTORE PUSH1 0x20 ADD DUP4 PUSH20 0xFFFFFFFFFFFFFFFFFFFFFFFFFFFFFFFFFFFFFFFF AND DUP2 MSTORE PUSH1 0x20 ADD DUP3 DUP2 MSTORE POP PUSH1 0x0 DUP1 PUSH1 0x1 SLOAD DUP2 MSTORE PUSH1 0x20 ADD SWAP1 DUP2 MSTORE PUSH1 0x20 ADD PUSH1 0x0 KECCAK256 PUSH1 0x0 DUP3 ADD MLOAD DUP2 PUSH1 0x0 ADD PUSH1 0x0 PUSH2 0x100 EXP DUP2 SLOAD DUP2 PUSH20 0xFFFFFFFFFFFFFFFFFFFFFFFFFFFFFFFFFFFFFFFF MUL NOT AND SWAP1 DUP4 PUSH20 0xFFFFFFFFFFFFFFFFFFFFFFFFFFFFFFFFFFFFFFFF AND MUL OR SWAP1 SSTORE POP PUSH1 0x20 DUP3 ADD MLOAD DUP2 PUSH1 0x1 ADD SSTORE PUSH1 0x40 DUP3 ADD MLOAD DUP2 PUSH1 0x2 ADD SSTORE PUSH1 0x60 DUP3 ADD MLOAD DUP2 PUSH1 0x3 ADD SSTORE PUSH1 0x80 DUP3 ADD MLOAD DUP2 PUSH1 0x4 ADD PUSH1 0x0 PUSH2 0x100 EXP DUP2 SLOAD DUP2 PUSH1 0xFF MUL NOT AND SWAP1 DUP4 ISZERO ISZERO MUL OR SWAP1 SSTORE POP PUSH1 0xA0 DUP3 ADD MLOAD DUP2 PUSH1 0x4 ADD PUSH1 0x1 PUSH2 0x100 EXP DUP2 SLOAD DUP2 PUSH20 0xFFFFFFFFFFFFFFFFFFFFFFFFFFFFFFFFFFFFFFFF MUL NOT AND SWAP1 DUP4 PUSH20 0xFFFFFFFFFFFFFFFFFFFFFFFFFFFFFFFFFFFFFFFF AND MUL OR SWAP1 SSTORE POP PUSH1 0xC0 DUP3 ADD MLOAD DUP2 PUSH1 0x5 ADD SSTORE PUSH1 0xE0 DUP3 ADD MLOAD DUP2 PUSH1 0x6 ADD PUSH1 0x0 PUSH2 0x100 EXP DUP2 SLOAD DUP2 PUSH20 0xFFFFFFFFFFFFFFFFFFFFFFFFFFFFFFFFFFFFFFFF MUL NOT AND SWAP1 DUP4 PUSH20 0xFFFFFFFFFFFFFFFFFFFFFFFFFFFFFFFFFFFFFFFF AND MUL OR SWAP1 SSTORE POP PUSH2 0x100 DUP3 ADD MLOAD DUP2 PUSH1 0x7 ADD SSTORE SWAP1 POP POP PUSH1 0x1 PUSH1 0x0 DUP2 SLOAD DUP1 SWAP3 SWAP2 SWAP1 PUSH2 0x968 SWAP1 PUSH2 0x1133 JUMP JUMPDEST SWAP2 SWAP1 POP SSTORE POP POP POP POP POP JUMP JUMPDEST PUSH1 0x60 PUSH1 0x40 MLOAD DUP1 PUSH1 0x40 ADD PUSH1 0x40 MSTORE DUP1 PUSH1 0x12 DUP2 MSTORE PUSH1 0x20 ADD PUSH32 0x48656C6C6F2C204E667441756374696F6E210000000000000000000000000000 DUP2 MSTORE POP SWAP1 POP SWAP1 JUMP JUMPDEST PUSH1 0x2 PUSH1 0x0 SWAP1 SLOAD SWAP1 PUSH2 0x100 EXP SWAP1 DIV PUSH20 0xFFFFFFFFFFFFFFFFFFFFFFFFFFFFFFFFFFFFFFFF AND DUP2 JUMP JUMPDEST PUSH1 0x1 SLOAD DUP2 JUMP JUMPDEST PUSH1 0x0 DUP1 PUSH2 0x9E7 PUSH2 0x9F0 JUMP JUMPDEST SWAP1 POP DUP1 SWAP2 POP POP SWAP1 JUMP JUMPDEST PUSH1 0x0 PUSH32 0xF0C57E16840DF040F15088DC2F81FE391C3923BEC73E23A9662EFC9C229C6A00 PUSH1 0x0 SHL SWAP1 POP SWAP1 JUMP JUMPDEST PUSH1 0x0 DUP1 REVERT JUMPDEST PUSH1 0x0 DUP2 SWAP1 POP SWAP2 SWAP1 POP JUMP JUMPDEST PUSH2 0xA33 DUP2 PUSH2 0xA20 JUMP JUMPDEST DUP2 EQ PUSH2 0xA3E JUMPI PUSH1 0x0 DUP1 REVERT JUMPDEST POP JUMP JUMPDEST PUSH1 0x0 DUP2 CALLDATALOAD SWAP1 POP PUSH2 0xA50 DUP2 PUSH2 0xA2A JUMP JUMPDEST SWAP3 SWAP2 POP POP JUMP JUMPDEST PUSH1 0x0 PUSH1 0x20 DUP3 DUP5 SUB SLT ISZERO PUSH2 0xA6C JUMPI PUSH2 0xA6B PUSH2 0xA1B JUMP JUMPDEST JUMPDEST PUSH1 0x0 PUSH2 0xA7A DUP5 DUP3 DUP6 ADD PUSH2 0xA41 JUMP JUMPDEST SWAP2 POP POP SWAP3 SWAP2 POP POP JUMP JUMPDEST PUSH1 0x0 PUSH20 0xFFFFFFFFFFFFFFFFFFFFFFFFFFFFFFFFFFFFFFFF DUP3 AND SWAP1 POP SWAP2 SWAP1 POP JUMP JUMPDEST PUSH1 0x0 PUSH2 0xAAE DUP3 PUSH2 0xA83 JUMP JUMPDEST SWAP1 POP SWAP2 SWAP1 POP JUMP JUMPDEST PUSH2 0xABE DUP2 PUSH2 0xAA3 JUMP JUMPDEST DUP3 MSTORE POP POP JUMP JUMPDEST PUSH2 0xACD DUP2 PUSH2 0xA20 JUMP JUMPDEST DUP3 MSTORE POP POP JUMP JUMPDEST PUSH1 0x0 DUP2 ISZERO ISZERO SWAP1 POP SWAP2 SWAP1 POP JUMP JUMPDEST PUSH2 0xAE8 DUP2 PUSH2 0xAD3 JUMP JUMPDEST DUP3 MSTORE POP POP JUMP JUMPDEST PUSH1 0x0 PUSH2 0x120 DUP3 ADD SWAP1 POP PUSH2 0xB04 PUSH1 0x0 DUP4 ADD DUP13 PUSH2 0xAB5 JUMP JUMPDEST PUSH2 0xB11 PUSH1 0x20 DUP4 ADD DUP12 PUSH2 0xAC4 JUMP JUMPDEST PUSH2 0xB1E PUSH1 0x40 DUP4 ADD DUP11 PUSH2 0xAC4 JUMP JUMPDEST PUSH2 0xB2B PUSH1 0x60 DUP4 ADD DUP10 PUSH2 0xAC4 JUMP JUMPDEST PUSH2 0xB38 PUSH1 0x80 DUP4 ADD DUP9 PUSH2 0xADF JUMP JUMPDEST PUSH2 0xB45 PUSH1 0xA0 DUP4 ADD DUP8 PUSH2 0xAB5 JUMP JUMPDEST PUSH2 0xB52 PUSH1 0xC0 DUP4 ADD DUP7 PUSH2 0xAC4 JUMP JUMPDEST PUSH2 0xB5F PUSH1 0xE0 DUP4 ADD DUP6 PUSH2 0xAB5 JUMP JUMPDEST PUSH2 0xB6D PUSH2 0x100 DUP4 ADD DUP5 PUSH2 0xAC4 JUMP JUMPDEST SWAP11 SWAP10 POP POP POP POP POP POP POP POP POP POP JUMP JUMPDEST PUSH2 0xB84 DUP2 PUSH2 0xAA3 JUMP JUMPDEST DUP2 EQ PUSH2 0xB8F JUMPI PUSH1 0x0 DUP1 REVERT JUMPDEST POP JUMP JUMPDEST PUSH1 0x0 DUP2 CALLDATALOAD SWAP1 POP PUSH2 0xBA1 DUP2 PUSH2 0xB7B JUMP JUMPDEST SWAP3 SWAP2 POP POP JUMP JUMPDEST PUSH1 0x0 DUP1 PUSH1 0x0 DUP1 PUSH1 0x80 DUP6 DUP8 SUB SLT ISZERO PUSH2 0xBC1 JUMPI PUSH2 0xBC0 PUSH2 0xA1B JUMP JUMPDEST JUMPDEST PUSH1 0x0 PUSH2 0xBCF DUP8 DUP3 DUP9 ADD PUSH2 0xA41 JUMP JUMPDEST SWAP5 POP POP PUSH1 0x20 PUSH2 0xBE0 DUP8 DUP3 DUP9 ADD PUSH2 0xA41 JUMP JUMPDEST SWAP4 POP POP PUSH1 0x40 PUSH2 0xBF1 DUP8 DUP3 DUP9 ADD PUSH2 0xB92 JUMP JUMPDEST SWAP3 POP POP PUSH1 0x60 PUSH2 0xC02 DUP8 DUP3 DUP9 ADD PUSH2 0xA41 JUMP JUMPDEST SWAP2 POP POP SWAP3 SWAP6 SWAP2 SWAP5 POP SWAP3 POP JUMP JUMPDEST PUSH1 0x0 DUP2 MLOAD SWAP1 POP SWAP2 SWAP1 POP JUMP JUMPDEST PUSH1 0x0 DUP3 DUP3 MSTORE PUSH1 0x20 DUP3 ADD SWAP1 POP SWAP3 SWAP2 POP POP JUMP JUMPDEST PUSH1 0x0 JUMPDEST DUP4 DUP2 LT ISZERO PUSH2 0xC48 JUMPI DUP1 DUP3 ADD MLOAD DUP2 DUP5 ADD MSTORE PUSH1 0x20 DUP2 ADD SWAP1 POP PUSH2 0xC2D JUMP JUMPDEST PUSH1 0x0 DUP5 DUP5 ADD MSTORE POP POP POP POP JUMP JUMPDEST PUSH1 0x0 PUSH1 0x1F NOT PUSH1 0x1F DUP4 ADD AND SWAP1 POP SWAP2 SWAP1 POP JUMP JUMPDEST PUSH1 0x0 PUSH2 0xC70 DUP3 PUSH2 0xC0E JUMP JUMPDEST PUSH2 0xC7A DUP2 DUP6 PUSH2 0xC19 JUMP JUMPDEST SWAP4 POP PUSH2 0xC8A DUP2 DUP6 PUSH1 0x20 DUP7 ADD PUSH2 0xC2A JUMP JUMPDEST PUSH2 0xC93 DUP2 PUSH2 0xC54 JUMP JUMPDEST DUP5 ADD SWAP2 POP POP SWAP3 SWAP2 POP POP JUMP JUMPDEST PUSH1 0x0 PUSH1 0x20 DUP3 ADD SWAP1 POP DUP2 DUP2 SUB PUSH1 0x0 DUP4 ADD MSTORE PUSH2 0xCB8 DUP2 DUP5 PUSH2 0xC65 JUMP JUMPDEST SWAP1 POP SWAP3 SWAP2 POP POP JUMP JUMPDEST PUSH1 0x0 PUSH1 0x20 DUP3 ADD SWAP1 POP PUSH2 0xCD5 PUSH1 0x0 DUP4 ADD DUP5 PUSH2 0xAB5 JUMP JUMPDEST SWAP3 SWAP2 POP POP JUMP JUMPDEST PUSH1 0x0 PUSH1 0x20 DUP3 ADD SWAP1 POP PUSH2 0xCF0 PUSH1 0x0 DUP4 ADD DUP5 PUSH2 0xAC4 JUMP JUMPDEST SWAP3 SWAP2 POP POP JUMP JUMPDEST PUSH1 0x0 DUP2 SWAP1 POP SWAP2 SWAP1 POP JUMP JUMPDEST PUSH1 0x0 PUSH8 0xFFFFFFFFFFFFFFFF DUP3 AND SWAP1 POP SWAP2 SWAP1 POP JUMP JUMPDEST PUSH1 0x0 DUP2 SWAP1 POP SWAP2 SWAP1 POP JUMP JUMPDEST PUSH1 0x0 PUSH2 0xD39 PUSH2 0xD34 PUSH2 0xD2F DUP5 PUSH2 0xCF6 JUMP JUMPDEST PUSH2 0xD14 JUMP JUMPDEST PUSH2 0xD00 JUMP JUMPDEST SWAP1 POP SWAP2 SWAP1 POP JUMP JUMPDEST PUSH2 0xD49 DUP2 PUSH2 0xD1E JUMP JUMPDEST DUP3 MSTORE POP POP JUMP JUMPDEST PUSH1 0x0 PUSH1 0x20 DUP3 ADD SWAP1 POP PUSH2 0xD64 PUSH1 0x0 DUP4 ADD DUP5 PUSH2 0xD40 JUMP JUMPDEST SWAP3 SWAP2 POP POP JUMP JUMPDEST PUSH32 0x41756374696F6E20686173206265656E20656E64656400000000000000000000 PUSH1 0x0 DUP3 ADD MSTORE POP JUMP JUMPDEST PUSH1 0x0 PUSH2 0xDA0 PUSH1 0x16 DUP4 PUSH2 0xC19 JUMP JUMPDEST SWAP2 POP PUSH2 0xDAB DUP3 PUSH2 0xD6A JUMP JUMPDEST PUSH1 0x20 DUP3 ADD SWAP1 POP SWAP2 SWAP1 POP JUMP JUMPDEST PUSH1 0x0 PUSH1 0x20 DUP3 ADD SWAP1 POP DUP2 DUP2 SUB PUSH1 0x0 DUP4 ADD MSTORE PUSH2 0xDCF DUP2 PUSH2 0xD93 JUMP JUMPDEST SWAP1 POP SWAP2 SWAP1 POP JUMP JUMPDEST PUSH32 0x4E487B7100000000000000000000000000000000000000000000000000000000 PUSH1 0x0 MSTORE PUSH1 0x11 PUSH1 0x4 MSTORE PUSH1 0x24 PUSH1 0x0 REVERT JUMPDEST PUSH1 0x0 PUSH2 0xE10 DUP3 PUSH2 0xA20 JUMP JUMPDEST SWAP2 POP PUSH2 0xE1B DUP4 PUSH2 0xA20 JUMP JUMPDEST SWAP3 POP DUP3 DUP3 ADD SWAP1 POP DUP1 DUP3 GT ISZERO PUSH2 0xE33 JUMPI PUSH2 0xE32 PUSH2 0xDD6 JUMP JUMPDEST JUMPDEST SWAP3 SWAP2 POP POP JUMP JUMPDEST PUSH32 0x41756374696F6E2074696D652068617320657870697265640000000000000000 PUSH1 0x0 DUP3 ADD MSTORE POP JUMP JUMPDEST PUSH1 0x0 PUSH2 0xE6F PUSH1 0x18 DUP4 PUSH2 0xC19 JUMP JUMPDEST SWAP2 POP PUSH2 0xE7A DUP3 PUSH2 0xE39 JUMP JUMPDEST PUSH1 0x20 DUP3 ADD SWAP1 POP SWAP2 SWAP1 POP JUMP JUMPDEST PUSH1 0x0 PUSH1 0x20 DUP3 ADD SWAP1 POP DUP2 DUP2 SUB PUSH1 0x0 DUP4 ADD MSTORE PUSH2 0xE9E DUP2 PUSH2 0xE62 JUMP JUMPDEST SWAP1 POP SWAP2 SWAP1 POP JUMP JUMPDEST PUSH32 0x426964206D75737420626520686967686572207468616E2063757272656E7420 PUSH1 0x0 DUP3 ADD MSTORE PUSH32 0x6869676865737420626964000000000000000000000000000000000000000000 PUSH1 0x20 DUP3 ADD MSTORE POP JUMP JUMPDEST PUSH1 0x0 PUSH2 0xF01 PUSH1 0x2B DUP4 PUSH2 0xC19 JUMP JUMPDEST SWAP2 POP PUSH2 0xF0C DUP3 PUSH2 0xEA5 JUMP JUMPDEST PUSH1 0x40 DUP3 ADD SWAP1 POP SWAP2 SWAP1 POP JUMP JUMPDEST PUSH1 0x0 PUSH1 0x20 DUP3 ADD SWAP1 POP DUP2 DUP2 SUB PUSH1 0x0 DUP4 ADD MSTORE PUSH2 0xF30 DUP2 PUSH2 0xEF4 JUMP JUMPDEST SWAP1 POP SWAP2 SWAP1 POP JUMP JUMPDEST PUSH32 0x426964206D757374206265206174206C6561737420746865207374617274696E PUSH1 0x0 DUP3 ADD MSTORE PUSH32 0x6720707269636500000000000000000000000000000000000000000000000000 PUSH1 0x20 DUP3 ADD MSTORE POP JUMP JUMPDEST PUSH1 0x0 PUSH2 0xF93 PUSH1 0x27 DUP4 PUSH2 0xC19 JUMP JUMPDEST SWAP2 POP PUSH2 0xF9E DUP3 PUSH2 0xF37 JUMP JUMPDEST PUSH1 0x40 DUP3 ADD SWAP1 POP SWAP2 SWAP1 POP JUMP JUMPDEST PUSH1 0x0 PUSH1 0x20 DUP3 ADD SWAP1 POP DUP2 DUP2 SUB PUSH1 0x0 DUP4 ADD MSTORE PUSH2 0xFC2 DUP2 PUSH2 0xF86 JUMP JUMPDEST SWAP1 POP SWAP2 SWAP1 POP JUMP JUMPDEST PUSH32 0x4F6E6C792061646D696E2063616E206372656174652061756374696F6E730000 PUSH1 0x0 DUP3 ADD MSTORE POP JUMP JUMPDEST PUSH1 0x0 PUSH2 0xFFF PUSH1 0x1E DUP4 PUSH2 0xC19 JUMP JUMPDEST SWAP2 POP PUSH2 0x100A DUP3 PUSH2 0xFC9 JUMP JUMPDEST PUSH1 0x20 DUP3 ADD SWAP1 POP SWAP2 SWAP1 POP JUMP JUMPDEST PUSH1 0x0 PUSH1 0x20 DUP3 ADD SWAP1 POP DUP2 DUP2 SUB PUSH1 0x0 DUP4 ADD MSTORE PUSH2 0x102E DUP2 PUSH2 0xFF2 JUMP JUMPDEST SWAP1 POP SWAP2 SWAP1 POP JUMP JUMPDEST PUSH32 0x5374617274207072696365206D7573742062652067726561746572207468616E PUSH1 0x0 DUP3 ADD MSTORE PUSH32 0x2030000000000000000000000000000000000000000000000000000000000000 PUSH1 0x20 DUP3 ADD MSTORE POP JUMP JUMPDEST PUSH1 0x0 PUSH2 0x1091 PUSH1 0x22 DUP4 PUSH2 0xC19 JUMP JUMPDEST SWAP2 POP PUSH2 0x109C DUP3 PUSH2 0x1035 JUMP JUMPDEST PUSH1 0x40 DUP3 ADD SWAP1 POP SWAP2 SWAP1 POP JUMP JUMPDEST PUSH1 0x0 PUSH1 0x20 DUP3 ADD SWAP1 POP DUP2 DUP2 SUB PUSH1 0x0 DUP4 ADD MSTORE PUSH2 0x10C0 DUP2 PUSH2 0x1084 JUMP JUMPDEST SWAP1 POP SWAP2 SWAP1 POP JUMP JUMPDEST PUSH32 0x4475726174696F6E206D7573742062652067726561746572207468616E203000 PUSH1 0x0 DUP3 ADD MSTORE POP JUMP JUMPDEST PUSH1 0x0 PUSH2 0x10FD PUSH1 0x1F DUP4 PUSH2 0xC19 JUMP JUMPDEST SWAP2 POP PUSH2 0x1108 DUP3 PUSH2 0x10C7 JUMP JUMPDEST PUSH1 0x20 DUP3 ADD SWAP1 POP SWAP2 SWAP1 POP JUMP JUMPDEST PUSH1 0x0 PUSH1 0x20 DUP3 ADD SWAP1 POP DUP2 DUP2 SUB PUSH1 0x0 DUP4 ADD MSTORE PUSH2 0x112C DUP2 PUSH2 0x10F0 JUMP JUMPDEST SWAP1 POP SWAP2 SWAP1 POP JUMP JUMPDEST PUSH1 0x0 PUSH2 0x113E DUP3 PUSH2 0xA20 JUMP JUMPDEST SWAP2 POP PUSH32 0xFFFFFFFFFFFFFFFFFFFFFFFFFFFFFFFFFFFFFFFFFFFFFFFFFFFFFFFFFFFFFFFF DUP3 SUB PUSH2 0x1170 JUMPI PUSH2 0x116F PUSH2 0xDD6 JUMP JUMPDEST JUMPDEST PUSH1 0x1 DUP3 ADD SWAP1 POP SWAP2 SWAP1 POP JUMP INVALID LOG2 PUSH5 0x6970667358 0x22 SLT KECCAK256 0xCD CREATE2 PUSH23 0x75ADDAB507DC396FB997F0A6F9FEB66947FA5E0600E57E JUMP EXTCODEHASH 0xBF LOG4 PUSH5 0x1E64736F6C PUSH4 0x4300081C STOP CALLER "},"gasEstimates":{"creation":{"codeDepositCost":"905800","executionCost":"942","totalCost":"906742"},"external":{"admin()":"2558","auctions(uint256)":"infinite","createAuction(uint256,uint256,address,uint256)":"infinite","initialize()":"105945","nextAuctionId()":"2495","placeBid(uint256)":"infinite","testHello()":"infinite"}},"methodIdentifiers":{"admin()":"f851a440","auctions(uint256)":"571a26a0","createAuction(uint256,uint256,address,uint256)":"b1cb48ef","initialize()":"8129fc1c","nextAuctionId()":"fc528482","placeBid(uint256)":"9979ef45","testHello()":"c97c6353"}},"storageLayout":{"storage":[{"astId":296,"contract":"contracts/NftAuctionV2.sol:NftAuctionV2","label":"auctions","offset":0,"slot":"0","type":"t_mapping(t_uint256,t_struct(Auction)291_storage)"},{"astId":298,"contract":"contracts/NftAuctionV2.sol:NftAuctionV2","label":"nextAuctionId","offset":0,"slot":"1","type":"t_uint256"},{"astId":300,"contract":"contracts/NftAuctionV2.sol:NftAuctionV2","label":"admin","offset":0,"slot":"2","type":"t_address"}],"types":{"t_address":{"encoding":"inplace","label":"address","numberOfBytes":"20"},"t_bool":{"encoding":"inplace","label":"bool","numberOfBytes":"1"},"t_mapping(t_uint256,t_struct(Auction)291_storage)":{"encoding":"mapping","key":"t_uint256","label":"mapping(uint256 => struct NftAuctionV2.Auction)","numberOfBytes":"32","value":"t_struct(Auction)291_storage"},"t_struct(Auction)291_storage":{"encoding":"inplace","label":"struct NftAuctionV2.Auction","members":[{"astId":274,"contract":"contracts/NftAuctionV2.sol:NftAuctionV2","label":"seller","offset":0,"slot":"0","type":"t_address"},{"astId":276,"contract":"contracts/NftAuctionV2.sol:NftAuctionV2","label":"startPrice","offset":0,"slot":"1","type":"t_uint256"},{"astId":278,"contract":"contracts/NftAuctionV2.sol:NftAuctionV2","label":"startTime","offset":0,"slot":"2","type":"t_uint256"},{"astId":280,"contract":"contracts/NftAuctionV2.sol:NftAuctionV2","label":"duration","offset":0,"slot":"3","type":"t_uint256"},{"astId":282,"contract":"contracts/NftAuctionV2.sol:NftAuctionV2","label":"ended","offset":0,"slot":"4","type":"t_bool"},{"astId":284,"contract":"contracts/NftAuctionV2.sol:NftAuctionV2","label":"highestBidder","offset":1,"slot":"4","type":"t_address"},{"astId":286,"contract":"contracts/NftAuctionV2.sol:NftAuctionV2","label":"highestBid","offset":0,"slot":"5","type":"t_uint256"},{"astId":288,"contract":"contracts/NftAuctionV2.sol:NftAuctionV2","label":"nftContract","offset":0,"slot":"6","type":"t_address"},{"astId":290,"contract":"contracts/NftAuctionV2.sol:NftAuctionV2","label":"tokenId","offset":0,"slot":"7","type":"t_uint256"}],"numberOfBytes":"256"},"t_uint256":{"encoding":"inplace","label":"uint256","numberOfBytes":"32"}}},"userdoc":{"kind":"user","methods":{},"version":1}}}}