{
  "_format": "hh-sol-artifact-1",
  "contractName": "TestERC721",
  "sourceName": "contracts/TestERC721.sol",
  "abi": [
    {
      "inputs": [],
      "stateMutability": "nonpayable",
      "type": "constructor"
    },
    {
      "inputs": [],
      "name": "ERC721EnumerableForbiddenBatchMint",
      "type": "error"
    },
    {
      "inputs": [
        {
          "internalType": "address",
          "name": "sender",
          "type": "address"
        },
        {
          "internalType": "uint256",
          "name": "tokenId",
          "type": "uint256"
        },
        {
          "internalType": "address",
          "name": "owner",
          "type": "address"
        }
      ],
      "name": "ERC721IncorrectOwner",
      "type": "error"
    },
    {
      "inputs": [
        {
          "internalType": "address",
          "name": "operator",
          "type": "address"
        },
        {
          "internalType": "uint256",
          "name": "tokenId",
          "type": "uint256"
        }
      ],
      "name": "ERC721InsufficientApproval",
      "type": "error"
    },
    {
      "inputs": [
        {
          "internalType": "address",
          "name": "approver",
          "type": "address"
        }
      ],
      "name": "ERC721InvalidApprover",
      "type": "error"
    },
    {
      "inputs": [
        {
          "internalType": "address",
          "name": "operator",
          "type": "address"
        }
      ],
      "name": "ERC721InvalidOperator",
      "type": "error"
    },
    {
      "inputs": [
        {
          "internalType": "address",
          "name": "owner",
          "type": "address"
        }
      ],
      "name": "ERC721InvalidOwner",
      "type": "error"
    },
    {
      "inputs": [
        {
          "internalType": "address",
          "name": "receiver",
          "type": "address"
        }
      ],
      "name": "ERC721InvalidReceiver",
      "type": "error"
    },
    {
      "inputs": [
        {
          "internalType": "address",
          "name": "sender",
          "type": "address"
        }
      ],
      "name": "ERC721InvalidSender",
      "type": "error"
    },
    {
      "inputs": [
        {
          "internalType": "uint256",
          "name": "tokenId",
          "type": "uint256"
        }
      ],
      "name": "ERC721NonexistentToken",
      "type": "error"
    },
    {
      "inputs": [
        {
          "internalType": "address",
          "name": "owner",
          "type": "address"
        },
        {
          "internalType": "uint256",
          "name": "index",
          "type": "uint256"
        }
      ],
      "name": "ERC721OutOfBoundsIndex",
      "type": "error"
    },
    {
      "inputs": [
        {
          "internalType": "address",
          "name": "owner",
          "type": "address"
        }
      ],
      "name": "OwnableInvalidOwner",
      "type": "error"
    },
    {
      "inputs": [
        {
          "internalType": "address",
          "name": "account",
          "type": "address"
        }
      ],
      "name": "OwnableUnauthorizedAccount",
      "type": "error"
    },
    {
      "anonymous": false,
      "inputs": [
        {
          "indexed": true,
          "internalType": "address",
          "name": "owner",
          "type": "address"
        },
        {
          "indexed": true,
          "internalType": "address",
          "name": "approved",
          "type": "address"
        },
        {
          "indexed": true,
          "internalType": "uint256",
          "name": "tokenId",
          "type": "uint256"
        }
      ],
      "name": "Approval",
      "type": "event"
    },
    {
      "anonymous": false,
      "inputs": [
        {
          "indexed": true,
          "internalType": "address",
          "name": "owner",
          "type": "address"
        },
        {
          "indexed": true,
          "internalType": "address",
          "name": "operator",
          "type": "address"
        },
        {
          "indexed": false,
          "internalType": "bool",
          "name": "approved",
          "type": "bool"
        }
      ],
      "name": "ApprovalForAll",
      "type": "event"
    },
    {
      "anonymous": false,
      "inputs": [
        {
          "indexed": true,
          "internalType": "address",
          "name": "previousOwner",
          "type": "address"
        },
        {
          "indexed": true,
          "internalType": "address",
          "name": "newOwner",
          "type": "address"
        }
      ],
      "name": "OwnershipTransferred",
      "type": "event"
    },
    {
      "anonymous": false,
      "inputs": [
        {
          "indexed": true,
          "internalType": "address",
          "name": "from",
          "type": "address"
        },
        {
          "indexed": true,
          "internalType": "address",
          "name": "to",
          "type": "address"
        },
        {
          "indexed": true,
          "internalType": "uint256",
          "name": "tokenId",
          "type": "uint256"
        }
      ],
      "name": "Transfer",
      "type": "event"
    },
    {
      "inputs": [
        {
          "internalType": "address",
          "name": "to",
          "type": "address"
        },
        {
          "internalType": "uint256",
          "name": "tokenId",
          "type": "uint256"
        }
      ],
      "name": "approve",
      "outputs": [],
      "stateMutability": "nonpayable",
      "type": "function"
    },
    {
      "inputs": [
        {
          "internalType": "address",
          "name": "owner",
          "type": "address"
        }
      ],
      "name": "balanceOf",
      "outputs": [
        {
          "internalType": "uint256",
          "name": "",
          "type": "uint256"
        }
      ],
      "stateMutability": "view",
      "type": "function"
    },
    {
      "inputs": [
        {
          "internalType": "uint256",
          "name": "tokenId",
          "type": "uint256"
        }
      ],
      "name": "burn",
      "outputs": [],
      "stateMutability": "nonpayable",
      "type": "function"
    },
    {
      "inputs": [
        {
          "internalType": "uint256",
          "name": "tokenId",
          "type": "uint256"
        }
      ],
      "name": "getApproved",
      "outputs": [
        {
          "internalType": "address",
          "name": "",
          "type": "address"
        }
      ],
      "stateMutability": "view",
      "type": "function"
    },
    {
      "inputs": [
        {
          "internalType": "address",
          "name": "owner",
          "type": "address"
        },
        {
          "internalType": "address",
          "name": "operator",
          "type": "address"
        }
      ],
      "name": "isApprovedForAll",
      "outputs": [
        {
          "internalType": "bool",
          "name": "",
          "type": "bool"
        }
      ],
      "stateMutability": "view",
      "type": "function"
    },
    {
      "inputs": [
        {
          "internalType": "address",
          "name": "to",
          "type": "address"
        },
        {
          "internalType": "uint256",
          "name": "tokenId",
          "type": "uint256"
        }
      ],
      "name": "mint",
      "outputs": [],
      "stateMutability": "nonpayable",
      "type": "function"
    },
    {
      "inputs": [],
      "name": "name",
      "outputs": [
        {
          "internalType": "string",
          "name": "",
          "type": "string"
        }
      ],
      "stateMutability": "view",
      "type": "function"
    },
    {
      "inputs": [],
      "name": "owner",
      "outputs": [
        {
          "internalType": "address",
          "name": "",
          "type": "address"
        }
      ],
      "stateMutability": "view",
      "type": "function"
    },
    {
      "inputs": [
        {
          "internalType": "uint256",
          "name": "tokenId",
          "type": "uint256"
        }
      ],
      "name": "ownerOf",
      "outputs": [
        {
          "internalType": "address",
          "name": "",
          "type": "address"
        }
      ],
      "stateMutability": "view",
      "type": "function"
    },
    {
      "inputs": [],
      "name": "renounceOwnership",
      "outputs": [],
      "stateMutability": "nonpayable",
      "type": "function"
    },
    {
      "inputs": [
        {
          "internalType": "address",
          "name": "from",
          "type": "address"
        },
        {
          "internalType": "address",
          "name": "to",
          "type": "address"
        },
        {
          "internalType": "uint256",
          "name": "tokenId",
          "type": "uint256"
        }
      ],
      "name": "safeTransferFrom",
      "outputs": [],
      "stateMutability": "nonpayable",
      "type": "function"
    },
    {
      "inputs": [
        {
          "internalType": "address",
          "name": "from",
          "type": "address"
        },
        {
          "internalType": "address",
          "name": "to",
          "type": "address"
        },
        {
          "internalType": "uint256",
          "name": "tokenId",
          "type": "uint256"
        },
        {
          "internalType": "bytes",
          "name": "data",
          "type": "bytes"
        }
      ],
      "name": "safeTransferFrom",
      "outputs": [],
      "stateMutability": "nonpayable",
      "type": "function"
    },
    {
      "inputs": [
        {
          "internalType": "address",
          "name": "operator",
          "type": "address"
        },
        {
          "internalType": "bool",
          "name": "approved",
          "type": "bool"
        }
      ],
      "name": "setApprovalForAll",
      "outputs": [],
      "stateMutability": "nonpayable",
      "type": "function"
    },
    {
      "inputs": [
        {
          "internalType": "string",
          "name": "tokenURI_",
          "type": "string"
        }
      ],
      "name": "setTokenURI",
      "outputs": [],
      "stateMutability": "nonpayable",
      "type": "function"
    },
    {
      "inputs": [
        {
          "internalType": "bytes4",
          "name": "interfaceId",
          "type": "bytes4"
        }
      ],
      "name": "supportsInterface",
      "outputs": [
        {
          "internalType": "bool",
          "name": "",
          "type": "bool"
        }
      ],
      "stateMutability": "view",
      "type": "function"
    },
    {
      "inputs": [],
      "name": "symbol",
      "outputs": [
        {
          "internalType": "string",
          "name": "",
          "type": "string"
        }
      ],
      "stateMutability": "view",
      "type": "function"
    },
    {
      "inputs": [
        {
          "internalType": "uint256",
          "name": "index",
          "type": "uint256"
        }
      ],
      "name": "tokenByIndex",
      "outputs": [
        {
          "internalType": "uint256",
          "name": "",
          "type": "uint256"
        }
      ],
      "stateMutability": "view",
      "type": "function"
    },
    {
      "inputs": [
        {
          "internalType": "address",
          "name": "owner",
          "type": "address"
        },
        {
          "internalType": "uint256",
          "name": "index",
          "type": "uint256"
        }
      ],
      "name": "tokenOfOwnerByIndex",
      "outputs": [
        {
          "internalType": "uint256",
          "name": "",
          "type": "uint256"
        }
      ],
      "stateMutability": "view",
      "type": "function"
    },
    {
      "inputs": [
        {
          "internalType": "uint256",
          "name": "tokenId",
          "type": "uint256"
        }
      ],
      "name": "tokenURI",
      "outputs": [
        {
          "internalType": "string",
          "name": "",
          "type": "string"
        }
      ],
      "stateMutability": "view",
      "type": "function"
    },
    {
      "inputs": [],
      "name": "totalSupply",
      "outputs": [
        {
          "internalType": "uint256",
          "name": "",
          "type": "uint256"
        }
      ],
      "stateMutability": "view",
      "type": "function"
    },
    {
      "inputs": [
        {
          "internalType": "address",
          "name": "from",
          "type": "address"
        },
        {
          "internalType": "address",
          "name": "to",
          "type": "address"
        },
        {
          "internalType": "uint256",
          "name": "tokenId",
          "type": "uint256"
        }
      ],
      "name": "transferFrom",
      "outputs": [],
      "stateMutability": "nonpayable",
      "type": "function"
    },
    {
      "inputs": [
        {
          "internalType": "address",
          "name": "newOwner",
          "type": "address"
        }
      ],
      "name": "transferOwnership",
      "outputs": [],
      "stateMutability": "nonpayable",
      "type": "function"
    }
  ],
  "bytecode": "0x608060405234801561001057600080fd5b50336040518060400160405280600581526020017f54726f6c6c0000000000000000000000000000000000000000000000000000008152506040518060400160405280600581526020017f54726f6c6c000000000000000000000000000000000000000000000000000000815250816000908161008d919061043d565b50806001908161009d919061043d565b505050600073ffffffffffffffffffffffffffffffffffffffff168173ffffffffffffffffffffffffffffffffffffffff16036101125760006040517f1e4fbdf70000000000000000000000000000000000000000000000000000000081526004016101099190610550565b60405180910390fd5b6101218161012760201b60201c565b5061056b565b6000600a60009054906101000a900473ffffffffffffffffffffffffffffffffffffffff16905081600a60006101000a81548173ffffffffffffffffffffffffffffffffffffffff021916908373ffffffffffffffffffffffffffffffffffffffff1602179055508173ffffffffffffffffffffffffffffffffffffffff168173ffffffffffffffffffffffffffffffffffffffff167f8be0079c531659141344cd1fd0a4f28419497f9722a3daafe3b4186f6b6457e060405160405180910390a35050565b600081519050919050565b7f4e487b7100000000000000000000000000000000000000000000000000000000600052604160045260246000fd5b7f4e487b7100000000000000000000000000000000000000000000000000000000600052602260045260246000fd5b6000600282049050600182168061026e57607f821691505b60208210810361028157610280610227565b5b50919050565b60008190508160005260206000209050919050565b60006020601f8301049050919050565b600082821b905092915050565b6000600883026102e97fffffffffffffffffffffffffffffffffffffffffffffffffffffffffffffffff826102ac565b6102f386836102ac565b95508019841693508086168417925050509392505050565b6000819050919050565b6000819050919050565b600061033a6103356103308461030b565b610315565b61030b565b9050919050565b6000819050919050565b6103548361031f565b61036861036082610341565b8484546102b9565b825550505050565b600090565b61037d610370565b61038881848461034b565b505050565b5b818110156103ac576103a1600082610375565b60018101905061038e565b5050565b601f8211156103f1576103c281610287565b6103cb8461029c565b810160208510156103da578190505b6103ee6103e68561029c565b83018261038d565b50505b505050565b600082821c905092915050565b6000610414600019846008026103f6565b1980831691505092915050565b600061042d8383610403565b9150826002028217905092915050565b610446826101ed565b67ffffffffffffffff81111561045f5761045e6101f8565b5b6104698254610256565b6104748282856103b0565b600060209050601f8311600181146104a75760008415610495578287015190505b61049f8582610421565b865550610507565b601f1984166104b586610287565b60005b828110156104dd578489015182556001820191506020850194506020810190506104b8565b868310156104fa57848901516104f6601f891682610403565b8355505b6001600288020188555050505b505050505050565b600073ffffffffffffffffffffffffffffffffffffffff82169050919050565b600061053a8261050f565b9050919050565b61054a8161052f565b82525050565b60006020820190506105656000830184610541565b92915050565b6128bc8061057a6000396000f3fe608060405234801561001057600080fd5b50600436106101425760003560e01c80636352211e116100b8578063a22cb4651161007c578063a22cb46514610375578063b88d4fde14610391578063c87b56dd146103ad578063e0df5b6f146103dd578063e985e9c5146103f9578063f2fde38b1461042957610142565b80636352211e146102cf57806370a08231146102ff578063715018a61461032f5780638da5cb5b1461033957806395d89b411461035757610142565b806323b872dd1161010a57806323b872dd146101ff5780632f745c591461021b57806340c10f191461024b57806342842e0e1461026757806342966c68146102835780634f6ccce71461029f57610142565b806301ffc9a71461014757806306fdde0314610177578063081812fc14610195578063095ea7b3146101c557806318160ddd146101e1575b600080fd5b610161600480360381019061015c9190611d6c565b610445565b60405161016e9190611db4565b60405180910390f35b61017f6104bf565b60405161018c9190611e5f565b60405180910390f35b6101af60048036038101906101aa9190611eb7565b610551565b6040516101bc9190611f25565b60405180910390f35b6101df60048036038101906101da9190611f6c565b61056d565b005b6101e9610583565b6040516101f69190611fbb565b60405180910390f35b61021960048036038101906102149190611fd6565b610590565b005b61023560048036038101906102309190611f6c565b610692565b6040516102429190611fbb565b60405180910390f35b61026560048036038101906102609190611f6c565b61073b565b005b610281600480360381019061027c9190611fd6565b610751565b005b61029d60048036038101906102989190611eb7565b610771565b005b6102b960048036038101906102b49190611eb7565b610785565b6040516102c69190611fbb565b60405180910390f35b6102e960048036038101906102e49190611eb7565b6107fb565b6040516102f69190611f25565b60405180910390f35b61031960048036038101906103149190612029565b61080d565b6040516103269190611fbb565b60405180910390f35b6103376108c7565b005b6103416108db565b60405161034e9190611f25565b60405180910390f35b61035f610905565b60405161036c9190611e5f565b60405180910390f35b61038f600480360381019061038a9190612082565b610997565b005b6103ab60048036038101906103a691906121f7565b6109ad565b005b6103c760048036038101906103c29190611eb7565b6109d2565b6040516103d49190611e5f565b60405180910390f35b6103f760048036038101906103f2919061231b565b610a66565b005b610413600480360381019061040e9190612364565b610a81565b6040516104209190611db4565b60405180910390f35b610443600480360381019061043e9190612029565b610b15565b005b60007f780e9d63000000000000000000000000000000000000000000000000000000007bffffffffffffffffffffffffffffffffffffffffffffffffffffffff1916827bffffffffffffffffffffffffffffffffffffffffffffffffffffffff191614806104b857506104b782610b9b565b5b9050919050565b6060600080546104ce906123d3565b80601f01602080910402602001604051908101604052809291908181526020018280546104fa906123d3565b80156105475780601f1061051c57610100808354040283529160200191610547565b820191906000526020600020905b81548152906001019060200180831161052a57829003601f168201915b5050505050905090565b600061055c82610c7d565b5061056682610d05565b9050919050565b61057f828261057a610d42565b610d4a565b5050565b6000600880549050905090565b600073ffffffffffffffffffffffffffffffffffffffff168273ffffffffffffffffffffffffffffffffffffffff16036106025760006040517f64a0ae920000000000000000000000000000000000000000000000000000000081526004016105f99190611f25565b60405180910390fd5b60006106168383610611610d42565b610d5c565b90508373ffffffffffffffffffffffffffffffffffffffff168173ffffffffffffffffffffffffffffffffffffffff161461068c578382826040517f64283d7b00000000000000000000000000000000000000000000000000000000815260040161068393929190612404565b60405180910390fd5b50505050565b600061069d8361080d565b82106106e25782826040517fa57d13dc0000000000000000000000000000000000000000000000000000000081526004016106d992919061243b565b60405180910390fd5b600660008473ffffffffffffffffffffffffffffffffffffffff1673ffffffffffffffffffffffffffffffffffffffff168152602001908152602001600020600083815260200190815260200160002054905092915050565b610743610e79565b61074d8282610f00565b5050565b61076c838383604051806020016040528060008152506109ad565b505050565b610779610e79565b61078281610ff9565b50565b600061078f610583565b82106107d5576000826040517fa57d13dc0000000000000000000000000000000000000000000000000000000081526004016107cc92919061243b565b60405180910390fd5b600882815481106107e9576107e8612464565b5b90600052602060002001549050919050565b600061080682610c7d565b9050919050565b60008073ffffffffffffffffffffffffffffffffffffffff168273ffffffffffffffffffffffffffffffffffffffff16036108805760006040517f89c62b640000000000000000000000000000000000000000000000000000000081526004016108779190611f25565b60405180910390fd5b600360008373ffffffffffffffffffffffffffffffffffffffff1673ffffffffffffffffffffffffffffffffffffffff168152602001908152602001600020549050919050565b6108cf610e79565b6108d9600061107f565b565b6000600a60009054906101000a900473ffffffffffffffffffffffffffffffffffffffff16905090565b606060018054610914906123d3565b80601f0160208091040260200160405190810160405280929190818152602001828054610940906123d3565b801561098d5780601f106109625761010080835404028352916020019161098d565b820191906000526020600020905b81548152906001019060200180831161097057829003601f168201915b5050505050905090565b6109a96109a2610d42565b8383611145565b5050565b6109b8848484610590565b6109cc6109c3610d42565b858585856112b4565b50505050565b6060600b80546109e1906123d3565b80601f0160208091040260200160405190810160405280929190818152602001828054610a0d906123d3565b8015610a5a5780601f10610a2f57610100808354040283529160200191610a5a565b820191906000526020600020905b815481529060010190602001808311610a3d57829003601f168201915b50505050509050919050565b610a6e610e79565b80600b9081610a7d919061263f565b5050565b6000600560008473ffffffffffffffffffffffffffffffffffffffff1673ffffffffffffffffffffffffffffffffffffffff16815260200190815260200160002060008373ffffffffffffffffffffffffffffffffffffffff1673ffffffffffffffffffffffffffffffffffffffff16815260200190815260200160002060009054906101000a900460ff16905092915050565b610b1d610e79565b600073ffffffffffffffffffffffffffffffffffffffff168173ffffffffffffffffffffffffffffffffffffffff1603610b8f5760006040517f1e4fbdf7000000000000000000000000000000000000000000000000000000008152600401610b869190611f25565b60405180910390fd5b610b988161107f565b50565b60007f80ac58cd000000000000000000000000000000000000000000000000000000007bffffffffffffffffffffffffffffffffffffffffffffffffffffffff1916827bffffffffffffffffffffffffffffffffffffffffffffffffffffffff19161480610c6657507f5b5e139f000000000000000000000000000000000000000000000000000000007bffffffffffffffffffffffffffffffffffffffffffffffffffffffff1916827bffffffffffffffffffffffffffffffffffffffffffffffffffffffff1916145b80610c765750610c7582611465565b5b9050919050565b600080610c89836114cf565b9050600073ffffffffffffffffffffffffffffffffffffffff168173ffffffffffffffffffffffffffffffffffffffff1603610cfc57826040517f7e273289000000000000000000000000000000000000000000000000000000008152600401610cf39190611fbb565b60405180910390fd5b80915050919050565b60006004600083815260200190815260200160002060009054906101000a900473ffffffffffffffffffffffffffffffffffffffff169050919050565b600033905090565b610d57838383600161150c565b505050565b600080610d6a8585856116d1565b9050600073ffffffffffffffffffffffffffffffffffffffff168173ffffffffffffffffffffffffffffffffffffffff1603610dae57610da9846118eb565b610ded565b8473ffffffffffffffffffffffffffffffffffffffff168173ffffffffffffffffffffffffffffffffffffffff1614610dec57610deb8185611934565b5b5b600073ffffffffffffffffffffffffffffffffffffffff168573ffffffffffffffffffffffffffffffffffffffff1603610e2f57610e2a84611a1f565b610e6e565b8473ffffffffffffffffffffffffffffffffffffffff168173ffffffffffffffffffffffffffffffffffffffff1614610e6d57610e6c8585611af0565b5b5b809150509392505050565b610e81610d42565b73ffffffffffffffffffffffffffffffffffffffff16610e9f6108db565b73ffffffffffffffffffffffffffffffffffffffff1614610efe57610ec2610d42565b6040517f118cdaa7000000000000000000000000000000000000000000000000000000008152600401610ef59190611f25565b60405180910390fd5b565b600073ffffffffffffffffffffffffffffffffffffffff168273ffffffffffffffffffffffffffffffffffffffff1603610f725760006040517f64a0ae92000000000000000000000000000000000000000000000000000000008152600401610f699190611f25565b60405180910390fd5b6000610f8083836000610d5c565b9050600073ffffffffffffffffffffffffffffffffffffffff168173ffffffffffffffffffffffffffffffffffffffff1614610ff45760006040517f73c6ac6e000000000000000000000000000000000000000000000000000000008152600401610feb9190611f25565b60405180910390fd5b505050565b60006110086000836000610d5c565b9050600073ffffffffffffffffffffffffffffffffffffffff168173ffffffffffffffffffffffffffffffffffffffff160361107b57816040517f7e2732890000000000000000000000000000000000000000000000000000000081526004016110729190611fbb565b60405180910390fd5b5050565b6000600a60009054906101000a900473ffffffffffffffffffffffffffffffffffffffff16905081600a60006101000a81548173ffffffffffffffffffffffffffffffffffffffff021916908373ffffffffffffffffffffffffffffffffffffffff1602179055508173ffffffffffffffffffffffffffffffffffffffff168173ffffffffffffffffffffffffffffffffffffffff167f8be0079c531659141344cd1fd0a4f28419497f9722a3daafe3b4186f6b6457e060405160405180910390a35050565b600073ffffffffffffffffffffffffffffffffffffffff168273ffffffffffffffffffffffffffffffffffffffff16036111b657816040517f5b08ba180000000000000000000000000000000000000000000000000000000081526004016111ad9190611f25565b60405180910390fd5b80600560008573ffffffffffffffffffffffffffffffffffffffff1673ffffffffffffffffffffffffffffffffffffffff16815260200190815260200160002060008473ffffffffffffffffffffffffffffffffffffffff1673ffffffffffffffffffffffffffffffffffffffff16815260200190815260200160002060006101000a81548160ff0219169083151502179055508173ffffffffffffffffffffffffffffffffffffffff168373ffffffffffffffffffffffffffffffffffffffff167f17307eab39ab6107e8899845ad3d59bd9653f200f220920489ca2b5937696c31836040516112a79190611db4565b60405180910390a3505050565b60008373ffffffffffffffffffffffffffffffffffffffff163b111561145e578273ffffffffffffffffffffffffffffffffffffffff1663150b7a02868685856040518563ffffffff1660e01b81526004016113139493929190612766565b6020604051808303816000875af192505050801561134f57506040513d601f19601f8201168201806040525081019061134c91906127c7565b60015b6113d3573d806000811461137f576040519150601f19603f3d011682016040523d82523d6000602084013e611384565b606091505b5060008151036113cb57836040517f64a0ae920000000000000000000000000000000000000000000000000000000081526004016113c29190611f25565b60405180910390fd5b805160208201fd5b63150b7a0260e01b7bffffffffffffffffffffffffffffffffffffffffffffffffffffffff1916817bffffffffffffffffffffffffffffffffffffffffffffffffffffffff19161461145c57836040517f64a0ae920000000000000000000000000000000000000000000000000000000081526004016114539190611f25565b60405180910390fd5b505b5050505050565b60007f01ffc9a7000000000000000000000000000000000000000000000000000000007bffffffffffffffffffffffffffffffffffffffffffffffffffffffff1916827bffffffffffffffffffffffffffffffffffffffffffffffffffffffff1916149050919050565b60006002600083815260200190815260200160002060009054906101000a900473ffffffffffffffffffffffffffffffffffffffff169050919050565b80806115455750600073ffffffffffffffffffffffffffffffffffffffff168273ffffffffffffffffffffffffffffffffffffffff1614155b1561167957600061155584610c7d565b9050600073ffffffffffffffffffffffffffffffffffffffff168373ffffffffffffffffffffffffffffffffffffffff16141580156115c057508273ffffffffffffffffffffffffffffffffffffffff168173ffffffffffffffffffffffffffffffffffffffff1614155b80156115d357506115d18184610a81565b155b1561161557826040517fa9fbf51f00000000000000000000000000000000000000000000000000000000815260040161160c9190611f25565b60405180910390fd5b811561167757838573ffffffffffffffffffffffffffffffffffffffff168273ffffffffffffffffffffffffffffffffffffffff167f8c5be1e5ebec7d5bd14f71427d1e84f3dd0314c0f7b2291e5b200ac8c7c3b92560405160405180910390a45b505b836004600085815260200190815260200160002060006101000a81548173ffffffffffffffffffffffffffffffffffffffff021916908373ffffffffffffffffffffffffffffffffffffffff16021790555050505050565b6000806116dd846114cf565b9050600073ffffffffffffffffffffffffffffffffffffffff168373ffffffffffffffffffffffffffffffffffffffff161461171f5761171e818486611b7b565b5b600073ffffffffffffffffffffffffffffffffffffffff168173ffffffffffffffffffffffffffffffffffffffff16146117b05761176160008560008061150c565b6001600360008373ffffffffffffffffffffffffffffffffffffffff1673ffffffffffffffffffffffffffffffffffffffff168152602001908152602001600020600082825403925050819055505b600073ffffffffffffffffffffffffffffffffffffffff168573ffffffffffffffffffffffffffffffffffffffff1614611833576001600360008773ffffffffffffffffffffffffffffffffffffffff1673ffffffffffffffffffffffffffffffffffffffff168152602001908152602001600020600082825401925050819055505b846002600086815260200190815260200160002060006101000a81548173ffffffffffffffffffffffffffffffffffffffff021916908373ffffffffffffffffffffffffffffffffffffffff160217905550838573ffffffffffffffffffffffffffffffffffffffff168273ffffffffffffffffffffffffffffffffffffffff167fddf252ad1be2c89b69c2b068fc378daa952ba7f163c4a11628f55a4df523b3ef60405160405180910390a4809150509392505050565b6008805490506009600083815260200190815260200160002081905550600881908060018154018082558091505060019003906000526020600020016000909190919091505550565b600061193f8361080d565b90506000600760008481526020019081526020016000205490506000600660008673ffffffffffffffffffffffffffffffffffffffff1673ffffffffffffffffffffffffffffffffffffffff16815260200190815260200160002090508282146119eb5760008160008581526020019081526020016000205490508082600085815260200190815260200160002081905550826007600083815260200190815260200160002081905550505b6007600085815260200190815260200160002060009055806000848152602001908152602001600020600090555050505050565b60006001600880549050611a339190612823565b9050600060096000848152602001908152602001600020549050600060088381548110611a6357611a62612464565b5b906000526020600020015490508060088381548110611a8557611a84612464565b5b906000526020600020018190555081600960008381526020019081526020016000208190555060096000858152602001908152602001600020600090556008805480611ad457611ad3612857565b5b6001900381819060005260206000200160009055905550505050565b60006001611afd8461080d565b611b079190612823565b905081600660008573ffffffffffffffffffffffffffffffffffffffff1673ffffffffffffffffffffffffffffffffffffffff168152602001908152602001600020600083815260200190815260200160002081905550806007600084815260200190815260200160002081905550505050565b611b86838383611c3f565b611c3a57600073ffffffffffffffffffffffffffffffffffffffff168373ffffffffffffffffffffffffffffffffffffffff1603611bfb57806040517f7e273289000000000000000000000000000000000000000000000000000000008152600401611bf29190611fbb565b60405180910390fd5b81816040517f177e802f000000000000000000000000000000000000000000000000000000008152600401611c3192919061243b565b60405180910390fd5b505050565b60008073ffffffffffffffffffffffffffffffffffffffff168373ffffffffffffffffffffffffffffffffffffffff1614158015611cf757508273ffffffffffffffffffffffffffffffffffffffff168473ffffffffffffffffffffffffffffffffffffffff161480611cb85750611cb78484610a81565b5b80611cf657508273ffffffffffffffffffffffffffffffffffffffff16611cde83610d05565b73ffffffffffffffffffffffffffffffffffffffff16145b5b90509392505050565b6000604051905090565b600080fd5b600080fd5b60007fffffffff0000000000000000000000000000000000000000000000000000000082169050919050565b611d4981611d14565b8114611d5457600080fd5b50565b600081359050611d6681611d40565b92915050565b600060208284031215611d8257611d81611d0a565b5b6000611d9084828501611d57565b91505092915050565b60008115159050919050565b611dae81611d99565b82525050565b6000602082019050611dc96000830184611da5565b92915050565b600081519050919050565b600082825260208201905092915050565b60005b83811015611e09578082015181840152602081019050611dee565b60008484015250505050565b6000601f19601f8301169050919050565b6000611e3182611dcf565b611e3b8185611dda565b9350611e4b818560208601611deb565b611e5481611e15565b840191505092915050565b60006020820190508181036000830152611e798184611e26565b905092915050565b6000819050919050565b611e9481611e81565b8114611e9f57600080fd5b50565b600081359050611eb181611e8b565b92915050565b600060208284031215611ecd57611ecc611d0a565b5b6000611edb84828501611ea2565b91505092915050565b600073ffffffffffffffffffffffffffffffffffffffff82169050919050565b6000611f0f82611ee4565b9050919050565b611f1f81611f04565b82525050565b6000602082019050611f3a6000830184611f16565b92915050565b611f4981611f04565b8114611f5457600080fd5b50565b600081359050611f6681611f40565b92915050565b60008060408385031215611f8357611f82611d0a565b5b6000611f9185828601611f57565b9250506020611fa285828601611ea2565b9150509250929050565b611fb581611e81565b82525050565b6000602082019050611fd06000830184611fac565b92915050565b600080600060608486031215611fef57611fee611d0a565b5b6000611ffd86828701611f57565b935050602061200e86828701611f57565b925050604061201f86828701611ea2565b9150509250925092565b60006020828403121561203f5761203e611d0a565b5b600061204d84828501611f57565b91505092915050565b61205f81611d99565b811461206a57600080fd5b50565b60008135905061207c81612056565b92915050565b6000806040838503121561209957612098611d0a565b5b60006120a785828601611f57565b92505060206120b88582860161206d565b9150509250929050565b600080fd5b600080fd5b7f4e487b7100000000000000000000000000000000000000000000000000000000600052604160045260246000fd5b61210482611e15565b810181811067ffffffffffffffff82111715612123576121226120cc565b5b80604052505050565b6000612136611d00565b905061214282826120fb565b919050565b600067ffffffffffffffff821115612162576121616120cc565b5b61216b82611e15565b9050602081019050919050565b82818337600083830152505050565b600061219a61219584612147565b61212c565b9050828152602081018484840111156121b6576121b56120c7565b5b6121c1848285612178565b509392505050565b600082601f8301126121de576121dd6120c2565b5b81356121ee848260208601612187565b91505092915050565b6000806000806080858703121561221157612210611d0a565b5b600061221f87828801611f57565b945050602061223087828801611f57565b935050604061224187828801611ea2565b925050606085013567ffffffffffffffff81111561226257612261611d0f565b5b61226e878288016121c9565b91505092959194509250565b600067ffffffffffffffff821115612295576122946120cc565b5b61229e82611e15565b9050602081019050919050565b60006122be6122b98461227a565b61212c565b9050828152602081018484840111156122da576122d96120c7565b5b6122e5848285612178565b509392505050565b600082601f830112612302576123016120c2565b5b81356123128482602086016122ab565b91505092915050565b60006020828403121561233157612330611d0a565b5b600082013567ffffffffffffffff81111561234f5761234e611d0f565b5b61235b848285016122ed565b91505092915050565b6000806040838503121561237b5761237a611d0a565b5b600061238985828601611f57565b925050602061239a85828601611f57565b9150509250929050565b7f4e487b7100000000000000000000000000000000000000000000000000000000600052602260045260246000fd5b600060028204905060018216806123eb57607f821691505b6020821081036123fe576123fd6123a4565b5b50919050565b60006060820190506124196000830186611f16565b6124266020830185611fac565b6124336040830184611f16565b949350505050565b60006040820190506124506000830185611f16565b61245d6020830184611fac565b9392505050565b7f4e487b7100000000000000000000000000000000000000000000000000000000600052603260045260246000fd5b60008190508160005260206000209050919050565b60006020601f8301049050919050565b600082821b905092915050565b6000600883026124f57fffffffffffffffffffffffffffffffffffffffffffffffffffffffffffffffff826124b8565b6124ff86836124b8565b95508019841693508086168417925050509392505050565b6000819050919050565b600061253c61253761253284611e81565b612517565b611e81565b9050919050565b6000819050919050565b61255683612521565b61256a61256282612543565b8484546124c5565b825550505050565b600090565b61257f612572565b61258a81848461254d565b505050565b5b818110156125ae576125a3600082612577565b600181019050612590565b5050565b601f8211156125f3576125c481612493565b6125cd846124a8565b810160208510156125dc578190505b6125f06125e8856124a8565b83018261258f565b50505b505050565b600082821c905092915050565b6000612616600019846008026125f8565b1980831691505092915050565b600061262f8383612605565b9150826002028217905092915050565b61264882611dcf565b67ffffffffffffffff811115612661576126606120cc565b5b61266b82546123d3565b6126768282856125b2565b600060209050601f8311600181146126a95760008415612697578287015190505b6126a18582612623565b865550612709565b601f1984166126b786612493565b60005b828110156126df578489015182556001820191506020850194506020810190506126ba565b868310156126fc57848901516126f8601f891682612605565b8355505b6001600288020188555050505b505050505050565b600081519050919050565b600082825260208201905092915050565b600061273882612711565b612742818561271c565b9350612752818560208601611deb565b61275b81611e15565b840191505092915050565b600060808201905061277b6000830187611f16565b6127886020830186611f16565b6127956040830185611fac565b81810360608301526127a7818461272d565b905095945050505050565b6000815190506127c181611d40565b92915050565b6000602082840312156127dd576127dc611d0a565b5b60006127eb848285016127b2565b91505092915050565b7f4e487b7100000000000000000000000000000000000000000000000000000000600052601160045260246000fd5b600061282e82611e81565b915061283983611e81565b9250828203905081811115612851576128506127f4565b5b92915050565b7f4e487b7100000000000000000000000000000000000000000000000000000000600052603160045260246000fdfea26469706673582212203a43dbc6936be152035e9d7dd025575f0e8a85d7f44b125c7ac0c5b7090ed37664736f6c634300081c0033",
  "linkReferences": {},
  "deployedLinkReferences": {}
}