{
  "_format": "hh-sol-artifact-1",
  "contractName": "NftAuctionV2",
  "sourceName": "contracts/NftAuctionV2.sol",
  "abi": [
    {
      "inputs": [],
      "name": "InvalidInitialization",
      "type": "error"
    },
    {
      "inputs": [],
      "name": "NotInitializing",
      "type": "error"
    },
    {
      "anonymous": false,
      "inputs": [
        {
          "indexed": false,
          "internalType": "uint64",
          "name": "version",
          "type": "uint64"
        }
      ],
      "name": "Initialized",
      "type": "event"
    },
    {
      "inputs": [],
      "name": "admin",
      "outputs": [
        {
          "internalType": "address",
          "name": "",
          "type": "address"
        }
      ],
      "stateMutability": "view",
      "type": "function"
    },
    {
      "inputs": [
        {
          "internalType": "uint256",
          "name": "",
          "type": "uint256"
        }
      ],
      "name": "auctions",
      "outputs": [
        {
          "internalType": "address",
          "name": "seller",
          "type": "address"
        },
        {
          "internalType": "uint256",
          "name": "startPrice",
          "type": "uint256"
        },
        {
          "internalType": "uint256",
          "name": "startTime",
          "type": "uint256"
        },
        {
          "internalType": "uint256",
          "name": "duration",
          "type": "uint256"
        },
        {
          "internalType": "bool",
          "name": "ended",
          "type": "bool"
        },
        {
          "internalType": "address",
          "name": "highestBidder",
          "type": "address"
        },
        {
          "internalType": "uint256",
          "name": "highestBid",
          "type": "uint256"
        },
        {
          "internalType": "address",
          "name": "nftContract",
          "type": "address"
        },
        {
          "internalType": "uint256",
          "name": "tokenId",
          "type": "uint256"
        }
      ],
      "stateMutability": "view",
      "type": "function"
    },
    {
      "inputs": [
        {
          "internalType": "uint256",
          "name": "_startPrice",
          "type": "uint256"
        },
        {
          "internalType": "uint256",
          "name": "_duration",
          "type": "uint256"
        },
        {
          "internalType": "address",
          "name": "_nftContract",
          "type": "address"
        },
        {
          "internalType": "uint256",
          "name": "_tokenId",
          "type": "uint256"
        }
      ],
      "name": "createAuction",
      "outputs": [],
      "stateMutability": "nonpayable",
      "type": "function"
    },
    {
      "inputs": [],
      "name": "initialize",
      "outputs": [],
      "stateMutability": "nonpayable",
      "type": "function"
    },
    {
      "inputs": [],
      "name": "nextAuctionId",
      "outputs": [
        {
          "internalType": "uint256",
          "name": "",
          "type": "uint256"
        }
      ],
      "stateMutability": "view",
      "type": "function"
    },
    {
      "inputs": [
        {
          "internalType": "uint256",
          "name": "_auctionId",
          "type": "uint256"
        }
      ],
      "name": "placeBid",
      "outputs": [],
      "stateMutability": "payable",
      "type": "function"
    },
    {
      "inputs": [],
      "name": "testHello",
      "outputs": [
        {
          "internalType": "string",
          "name": "",
          "type": "string"
        }
      ],
      "stateMutability": "pure",
      "type": "function"
    }
  ],
  "bytecode": "0x6080604052348015600f57600080fd5b506111b18061001f6000396000f3fe6080604052600436106100705760003560e01c8063b1cb48ef1161004e578063b1cb48ef146100ed578063c97c635314610116578063f851a44014610141578063fc5284821461016c57610070565b8063571a26a0146100755780638129fc1c146100ba5780639979ef45146100d1575b600080fd5b34801561008157600080fd5b5061009c60048036038101906100979190610a56565b610197565b6040516100b199989796959493929190610aee565b60405180910390f35b3480156100c657600080fd5b506100cf610252565b005b6100eb60048036038101906100e69190610a56565b610418565b005b3480156100f957600080fd5b50610114600480360381019061010f9190610ba7565b610679565b005b34801561012257600080fd5b5061012b610973565b6040516101389190610c9e565b60405180910390f35b34801561014d57600080fd5b506101566109b0565b6040516101639190610cc0565b60405180910390f35b34801561017857600080fd5b506101816109d6565b60405161018e9190610cdb565b60405180910390f35b60006020528060005260406000206000915090508060000160009054906101000a900473ffffffffffffffffffffffffffffffffffffffff16908060010154908060020154908060030154908060040160009054906101000a900460ff16908060040160019054906101000a900473ffffffffffffffffffffffffffffffffffffffff16908060050154908060060160009054906101000a900473ffffffffffffffffffffffffffffffffffffffff16908060070154905089565b600061025c6109dc565b905060008160000160089054906101000a900460ff1615905060008260000160009054906101000a900467ffffffffffffffff1690506000808267ffffffffffffffff161480156102aa5750825b9050600060018367ffffffffffffffff161480156102df575060003073ffffffffffffffffffffffffffffffffffffffff163b145b9050811580156102ed575080155b15610324576040517ff92ee8a900000000000000000000000000000000000000000000000000000000815260040160405180910390fd5b60018560000160006101000a81548167ffffffffffffffff021916908367ffffffffffffffff16021790555083156103745760018560000160086101000a81548160ff0219169083151502179055505b33600260006101000a81548173ffffffffffffffffffffffffffffffffffffffff021916908373ffffffffffffffffffffffffffffffffffffffff16021790555083156104115760008560000160086101000a81548160ff0219169083151502179055507fc7f505b2f371ae2175ee4913f4499e1f2633a7b5936321eed1cdaeb6115181d260016040516104089190610d4f565b60405180910390a15b5050505050565b600080600083815260200190815260200160002090508060040160009054906101000a900460ff1615610480576040517f08c379a000000000000000000000000000000000000000000000000000000000815260040161047790610db6565b60405180910390fd5b806003015481600201546104949190610e05565b42106104d5576040517f08c379a00000000000000000000000000000000000000000000000000000000081526004016104cc90610e85565b60405180910390fd5b8060050154341161051b576040517f08c379a000000000000000000000000000000000000000000000000000000000815260040161051290610f17565b60405180910390fd5b80600101543411610561576040517f08c379a000000000000000000000000000000000000000000000000000000000815260040161055890610fa9565b60405180910390fd5b600073ffffffffffffffffffffffffffffffffffffffff168160040160019054906101000a900473ffffffffffffffffffffffffffffffffffffffff1673ffffffffffffffffffffffffffffffffffffffff1614610629578060040160019054906101000a900473ffffffffffffffffffffffffffffffffffffffff1673ffffffffffffffffffffffffffffffffffffffff166108fc82600501549081150290604051600060405180830381858888f19350505050158015610627573d6000803e3d6000fd5b505b338160040160016101000a81548173ffffffffffffffffffffffffffffffffffffffff021916908373ffffffffffffffffffffffffffffffffffffffff1602179055503481600501819055505050565b600260009054906101000a900473ffffffffffffffffffffffffffffffffffffffff1673ffffffffffffffffffffffffffffffffffffffff163373ffffffffffffffffffffffffffffffffffffffff1614610709576040517f08c379a000000000000000000000000000000000000000000000000000000000815260040161070090611015565b60405180910390fd5b6000841161074c576040517f08c379a0000000000000000000000000000000000000000000000000000000008152600401610743906110a7565b60405180910390fd5b6000831161078f576040517f08c379a000000000000000000000000000000000000000000000000000000000815260040161078690611113565b60405180910390fd5b6040518061012001604052803373ffffffffffffffffffffffffffffffffffffffff168152602001858152602001428152602001848152602001600015158152602001600073ffffffffffffffffffffffffffffffffffffffff168152602001600081526020018373ffffffffffffffffffffffffffffffffffffffff16815260200182815250600080600154815260200190815260200160002060008201518160000160006101000a81548173ffffffffffffffffffffffffffffffffffffffff021916908373ffffffffffffffffffffffffffffffffffffffff16021790555060208201518160010155604082015181600201556060820151816003015560808201518160040160006101000a81548160ff02191690831515021790555060a08201518160040160016101000a81548173ffffffffffffffffffffffffffffffffffffffff021916908373ffffffffffffffffffffffffffffffffffffffff16021790555060c0820151816005015560e08201518160060160006101000a81548173ffffffffffffffffffffffffffffffffffffffff021916908373ffffffffffffffffffffffffffffffffffffffff16021790555061010082015181600701559050506001600081548092919061096890611133565b919050555050505050565b60606040518060400160405280601281526020017f48656c6c6f2c204e667441756374696f6e210000000000000000000000000000815250905090565b600260009054906101000a900473ffffffffffffffffffffffffffffffffffffffff1681565b60015481565b6000806109e76109f0565b90508091505090565b60007ff0c57e16840df040f15088dc2f81fe391c3923bec73e23a9662efc9c229c6a0060001b905090565b600080fd5b6000819050919050565b610a3381610a20565b8114610a3e57600080fd5b50565b600081359050610a5081610a2a565b92915050565b600060208284031215610a6c57610a6b610a1b565b5b6000610a7a84828501610a41565b91505092915050565b600073ffffffffffffffffffffffffffffffffffffffff82169050919050565b6000610aae82610a83565b9050919050565b610abe81610aa3565b82525050565b610acd81610a20565b82525050565b60008115159050919050565b610ae881610ad3565b82525050565b600061012082019050610b04600083018c610ab5565b610b11602083018b610ac4565b610b1e604083018a610ac4565b610b2b6060830189610ac4565b610b386080830188610adf565b610b4560a0830187610ab5565b610b5260c0830186610ac4565b610b5f60e0830185610ab5565b610b6d610100830184610ac4565b9a9950505050505050505050565b610b8481610aa3565b8114610b8f57600080fd5b50565b600081359050610ba181610b7b565b92915050565b60008060008060808587031215610bc157610bc0610a1b565b5b6000610bcf87828801610a41565b9450506020610be087828801610a41565b9350506040610bf187828801610b92565b9250506060610c0287828801610a41565b91505092959194509250565b600081519050919050565b600082825260208201905092915050565b60005b83811015610c48578082015181840152602081019050610c2d565b60008484015250505050565b6000601f19601f8301169050919050565b6000610c7082610c0e565b610c7a8185610c19565b9350610c8a818560208601610c2a565b610c9381610c54565b840191505092915050565b60006020820190508181036000830152610cb88184610c65565b905092915050565b6000602082019050610cd56000830184610ab5565b92915050565b6000602082019050610cf06000830184610ac4565b92915050565b6000819050919050565b600067ffffffffffffffff82169050919050565b6000819050919050565b6000610d39610d34610d2f84610cf6565b610d14565b610d00565b9050919050565b610d4981610d1e565b82525050565b6000602082019050610d646000830184610d40565b92915050565b7f41756374696f6e20686173206265656e20656e64656400000000000000000000600082015250565b6000610da0601683610c19565b9150610dab82610d6a565b602082019050919050565b60006020820190508181036000830152610dcf81610d93565b9050919050565b7f4e487b7100000000000000000000000000000000000000000000000000000000600052601160045260246000fd5b6000610e1082610a20565b9150610e1b83610a20565b9250828201905080821115610e3357610e32610dd6565b5b92915050565b7f41756374696f6e2074696d652068617320657870697265640000000000000000600082015250565b6000610e6f601883610c19565b9150610e7a82610e39565b602082019050919050565b60006020820190508181036000830152610e9e81610e62565b9050919050565b7f426964206d75737420626520686967686572207468616e2063757272656e742060008201527f6869676865737420626964000000000000000000000000000000000000000000602082015250565b6000610f01602b83610c19565b9150610f0c82610ea5565b604082019050919050565b60006020820190508181036000830152610f3081610ef4565b9050919050565b7f426964206d757374206265206174206c6561737420746865207374617274696e60008201527f6720707269636500000000000000000000000000000000000000000000000000602082015250565b6000610f93602783610c19565b9150610f9e82610f37565b604082019050919050565b60006020820190508181036000830152610fc281610f86565b9050919050565b7f4f6e6c792061646d696e2063616e206372656174652061756374696f6e730000600082015250565b6000610fff601e83610c19565b915061100a82610fc9565b602082019050919050565b6000602082019050818103600083015261102e81610ff2565b9050919050565b7f5374617274207072696365206d7573742062652067726561746572207468616e60008201527f2030000000000000000000000000000000000000000000000000000000000000602082015250565b6000611091602283610c19565b915061109c82611035565b604082019050919050565b600060208201905081810360008301526110c081611084565b9050919050565b7f4475726174696f6e206d7573742062652067726561746572207468616e203000600082015250565b60006110fd601f83610c19565b9150611108826110c7565b602082019050919050565b6000602082019050818103600083015261112c816110f0565b9050919050565b600061113e82610a20565b91507fffffffffffffffffffffffffffffffffffffffffffffffffffffffffffffffff82036111705761116f610dd6565b5b60018201905091905056fea2646970667358221220cdf57675addab507dc396fb997f0a6f9feb66947fa5e0600e57e563fbfa4641e64736f6c634300081c0033",
  "linkReferences": {},
  "deployedLinkReferences": {}
}