{
  "_format": "hh-sol-artifact-1",
  "contractName": "NftAuction",
  "sourceName": "contracts/NftAuction.sol",
  "abi": [
    {
      "inputs": [
        {
          "internalType": "address",
          "name": "target",
          "type": "address"
        }
      ],
      "name": "AddressEmptyCode",
      "type": "error"
    },
    {
      "inputs": [
        {
          "internalType": "address",
          "name": "implementation",
          "type": "address"
        }
      ],
      "name": "ERC1967InvalidImplementation",
      "type": "error"
    },
    {
      "inputs": [],
      "name": "ERC1967NonPayable",
      "type": "error"
    },
    {
      "inputs": [],
      "name": "FailedCall",
      "type": "error"
    },
    {
      "inputs": [],
      "name": "InvalidInitialization",
      "type": "error"
    },
    {
      "inputs": [],
      "name": "NotInitializing",
      "type": "error"
    },
    {
      "inputs": [],
      "name": "UUPSUnauthorizedCallContext",
      "type": "error"
    },
    {
      "inputs": [
        {
          "internalType": "bytes32",
          "name": "slot",
          "type": "bytes32"
        }
      ],
      "name": "UUPSUnsupportedProxiableUUID",
      "type": "error"
    },
    {
      "anonymous": false,
      "inputs": [
        {
          "indexed": false,
          "internalType": "uint64",
          "name": "version",
          "type": "uint64"
        }
      ],
      "name": "Initialized",
      "type": "event"
    },
    {
      "anonymous": false,
      "inputs": [
        {
          "indexed": true,
          "internalType": "address",
          "name": "implementation",
          "type": "address"
        }
      ],
      "name": "Upgraded",
      "type": "event"
    },
    {
      "inputs": [],
      "name": "UPGRADE_INTERFACE_VERSION",
      "outputs": [
        {
          "internalType": "string",
          "name": "",
          "type": "string"
        }
      ],
      "stateMutability": "view",
      "type": "function"
    },
    {
      "inputs": [],
      "name": "admin",
      "outputs": [
        {
          "internalType": "address",
          "name": "",
          "type": "address"
        }
      ],
      "stateMutability": "view",
      "type": "function"
    },
    {
      "inputs": [
        {
          "internalType": "uint256",
          "name": "",
          "type": "uint256"
        }
      ],
      "name": "auctions",
      "outputs": [
        {
          "internalType": "address",
          "name": "seller",
          "type": "address"
        },
        {
          "internalType": "uint256",
          "name": "startPrice",
          "type": "uint256"
        },
        {
          "internalType": "uint256",
          "name": "startTime",
          "type": "uint256"
        },
        {
          "internalType": "uint256",
          "name": "duration",
          "type": "uint256"
        },
        {
          "internalType": "bool",
          "name": "ended",
          "type": "bool"
        },
        {
          "internalType": "address",
          "name": "highestBidder",
          "type": "address"
        },
        {
          "internalType": "uint256",
          "name": "highestBid",
          "type": "uint256"
        },
        {
          "internalType": "address",
          "name": "nftContract",
          "type": "address"
        },
        {
          "internalType": "uint256",
          "name": "tokenId",
          "type": "uint256"
        }
      ],
      "stateMutability": "view",
      "type": "function"
    },
    {
      "inputs": [
        {
          "internalType": "uint256",
          "name": "_duration",
          "type": "uint256"
        },
        {
          "internalType": "uint256",
          "name": "_startPrice",
          "type": "uint256"
        },
        {
          "internalType": "address",
          "name": "_nftContract",
          "type": "address"
        },
        {
          "internalType": "uint256",
          "name": "_tokenId",
          "type": "uint256"
        }
      ],
      "name": "createAuction",
      "outputs": [],
      "stateMutability": "nonpayable",
      "type": "function"
    },
    {
      "inputs": [
        {
          "internalType": "uint256",
          "name": "_auctionId",
          "type": "uint256"
        }
      ],
      "name": "endAuction",
      "outputs": [],
      "stateMutability": "nonpayable",
      "type": "function"
    },
    {
      "inputs": [],
      "name": "initialize",
      "outputs": [],
      "stateMutability": "nonpayable",
      "type": "function"
    },
    {
      "inputs": [],
      "name": "nextAuctionId",
      "outputs": [
        {
          "internalType": "uint256",
          "name": "",
          "type": "uint256"
        }
      ],
      "stateMutability": "view",
      "type": "function"
    },
    {
      "inputs": [
        {
          "internalType": "uint256",
          "name": "_auctionId",
          "type": "uint256"
        }
      ],
      "name": "placeBid",
      "outputs": [],
      "stateMutability": "payable",
      "type": "function"
    },
    {
      "inputs": [],
      "name": "proxiableUUID",
      "outputs": [
        {
          "internalType": "bytes32",
          "name": "",
          "type": "bytes32"
        }
      ],
      "stateMutability": "view",
      "type": "function"
    },
    {
      "inputs": [
        {
          "internalType": "address",
          "name": "newImplementation",
          "type": "address"
        },
        {
          "internalType": "bytes",
          "name": "data",
          "type": "bytes"
        }
      ],
      "name": "upgradeToAndCall",
      "outputs": [],
      "stateMutability": "payable",
      "type": "function"
    }
  ],
  "bytecode": "0x60a06040523073ffffffffffffffffffffffffffffffffffffffff1660809073ffffffffffffffffffffffffffffffffffffffff16815250348015604257600080fd5b50608051611ec061006c60003960008181610cb001528181610d050152610f480152611ec06000f3fe6080604052600436106100915760003560e01c8063ad3cb1cc11610059578063ad3cb1cc14610155578063b1cb48ef14610180578063b9a2de3a146101a9578063f851a440146101d2578063fc528482146101fd57610091565b80634f1ef2861461009657806352d1902d146100b2578063571a26a0146100dd5780638129fc1c146101225780639979ef4514610139575b600080fd5b6100b060048036038101906100ab91906114f9565b610228565b005b3480156100be57600080fd5b506100c7610247565b6040516100d4919061156e565b60405180910390f35b3480156100e957600080fd5b5061010460048036038101906100ff91906115bf565b61027a565b60405161011999989796959493929190611625565b60405180910390f35b34801561012e57600080fd5b50610137610335565b005b610153600480360381019061014e91906115bf565b6104fb565b005b34801561016157600080fd5b5061016a61075d565b6040516101779190611731565b60405180910390f35b34801561018c57600080fd5b506101a760048036038101906101a29190611753565b610796565b005b3480156101b557600080fd5b506101d060048036038101906101cb91906115bf565b610afe565b005b3480156101de57600080fd5b506101e7610c82565b6040516101f491906117ba565b60405180910390f35b34801561020957600080fd5b50610212610ca8565b60405161021f91906117d5565b60405180910390f35b610230610cae565b61023982610d94565b6102438282610e27565b5050565b6000610251610f46565b7f360894a13ba1a3210667c828492db98dca3e2076cc3735a920a3ca505d382bbc60001b905090565b60006020528060005260406000206000915090508060000160009054906101000a900473ffffffffffffffffffffffffffffffffffffffff16908060010154908060020154908060030154908060040160009054906101000a900460ff16908060040160019054906101000a900473ffffffffffffffffffffffffffffffffffffffff16908060050154908060060160009054906101000a900473ffffffffffffffffffffffffffffffffffffffff16908060070154905089565b600061033f610fcd565b905060008160000160089054906101000a900460ff1615905060008260000160009054906101000a900467ffffffffffffffff1690506000808267ffffffffffffffff1614801561038d5750825b9050600060018367ffffffffffffffff161480156103c2575060003073ffffffffffffffffffffffffffffffffffffffff163b145b9050811580156103d0575080155b15610407576040517ff92ee8a900000000000000000000000000000000000000000000000000000000815260040160405180910390fd5b60018560000160006101000a81548167ffffffffffffffff021916908367ffffffffffffffff16021790555083156104575760018560000160086101000a81548160ff0219169083151502179055505b33600260006101000a81548173ffffffffffffffffffffffffffffffffffffffff021916908373ffffffffffffffffffffffffffffffffffffffff16021790555083156104f45760008560000160086101000a81548160ff0219169083151502179055507fc7f505b2f371ae2175ee4913f4499e1f2633a7b5936321eed1cdaeb6115181d260016040516104eb9190611849565b60405180910390a15b5050505050565b600080600083815260200190815260200160002090508060040160009054906101000a900460ff1615610563576040517f08c379a000000000000000000000000000000000000000000000000000000000815260040161055a906118b0565b60405180910390fd5b8060030154816002015461057791906118ff565b42106105b8576040517f08c379a00000000000000000000000000000000000000000000000000000000081526004016105af9061197f565b60405180910390fd5b806005015434116105fe576040517f08c379a00000000000000000000000000000000000000000000000000000000081526004016105f590611a11565b60405180910390fd5b8060010154341015610645576040517f08c379a000000000000000000000000000000000000000000000000000000000815260040161063c90611aa3565b60405180910390fd5b600073ffffffffffffffffffffffffffffffffffffffff168160040160019054906101000a900473ffffffffffffffffffffffffffffffffffffffff1673ffffffffffffffffffffffffffffffffffffffff161461070d578060040160019054906101000a900473ffffffffffffffffffffffffffffffffffffffff1673ffffffffffffffffffffffffffffffffffffffff166108fc82600501549081150290604051600060405180830381858888f1935050505015801561070b573d6000803e3d6000fd5b505b338160040160016101000a81548173ffffffffffffffffffffffffffffffffffffffff021916908373ffffffffffffffffffffffffffffffffffffffff1602179055503481600501819055505050565b6040518060400160405280600581526020017f352e302e3000000000000000000000000000000000000000000000000000000081525081565b600260009054906101000a900473ffffffffffffffffffffffffffffffffffffffff1673ffffffffffffffffffffffffffffffffffffffff163373ffffffffffffffffffffffffffffffffffffffff1614610826576040517f08c379a000000000000000000000000000000000000000000000000000000000815260040161081d90611b0f565b60405180910390fd5b60008311610869576040517f08c379a000000000000000000000000000000000000000000000000000000000815260040161086090611ba1565b60405180910390fd5b600a8410156108ad576040517f08c379a00000000000000000000000000000000000000000000000000000000081526004016108a490611c33565b60405180910390fd5b8173ffffffffffffffffffffffffffffffffffffffff1663095ea7b330836040518363ffffffff1660e01b81526004016108e8929190611c53565b600060405180830381600087803b15801561090257600080fd5b505af1158015610916573d6000803e3d6000fd5b505050506040518061012001604052803373ffffffffffffffffffffffffffffffffffffffff168152602001848152602001428152602001858152602001600015158152602001600073ffffffffffffffffffffffffffffffffffffffff168152602001600081526020018373ffffffffffffffffffffffffffffffffffffffff16815260200182815250600080600154815260200190815260200160002060008201518160000160006101000a81548173ffffffffffffffffffffffffffffffffffffffff021916908373ffffffffffffffffffffffffffffffffffffffff16021790555060208201518160010155604082015181600201556060820151816003015560808201518160040160006101000a81548160ff02191690831515021790555060a08201518160040160016101000a81548173ffffffffffffffffffffffffffffffffffffffff021916908373ffffffffffffffffffffffffffffffffffffffff16021790555060c0820151816005015560e08201518160060160006101000a81548173ffffffffffffffffffffffffffffffffffffffff021916908373ffffffffffffffffffffffffffffffffffffffff160217905550610100820151816007015590505060016000815480929190610af390611c7c565b919050555050505050565b600080600083815260200190815260200160002090508060040160009054906101000a900460ff16158015610b45575080600301548160020154610b4291906118ff565b42115b610b84576040517f08c379a0000000000000000000000000000000000000000000000000000000008152600401610b7b90611d10565b60405180910390fd5b8060060160009054906101000a900473ffffffffffffffffffffffffffffffffffffffff1673ffffffffffffffffffffffffffffffffffffffff166323b872dd600260009054906101000a900473ffffffffffffffffffffffffffffffffffffffff168360040160019054906101000a900473ffffffffffffffffffffffffffffffffffffffff1684600701546040518463ffffffff1660e01b8152600401610c2f93929190611d30565b600060405180830381600087803b158015610c4957600080fd5b505af1158015610c5d573d6000803e3d6000fd5b5050505060018160040160006101000a81548160ff0219169083151502179055505050565b600260009054906101000a900473ffffffffffffffffffffffffffffffffffffffff1681565b60015481565b7f000000000000000000000000000000000000000000000000000000000000000073ffffffffffffffffffffffffffffffffffffffff163073ffffffffffffffffffffffffffffffffffffffff161480610d5b57507f000000000000000000000000000000000000000000000000000000000000000073ffffffffffffffffffffffffffffffffffffffff16610d42610fe1565b73ffffffffffffffffffffffffffffffffffffffff1614155b15610d92576040517fe07c8dba00000000000000000000000000000000000000000000000000000000815260040160405180910390fd5b565b600260009054906101000a900473ffffffffffffffffffffffffffffffffffffffff1673ffffffffffffffffffffffffffffffffffffffff163373ffffffffffffffffffffffffffffffffffffffff1614610e24576040517f08c379a0000000000000000000000000000000000000000000000000000000008152600401610e1b90611db3565b60405180910390fd5b50565b8173ffffffffffffffffffffffffffffffffffffffff166352d1902d6040518163ffffffff1660e01b8152600401602060405180830381865afa925050508015610e8f57506040513d601f19601f82011682018060405250810190610e8c9190611dff565b60015b610ed057816040517f4c9c8ce3000000000000000000000000000000000000000000000000000000008152600401610ec791906117ba565b60405180910390fd5b7f360894a13ba1a3210667c828492db98dca3e2076cc3735a920a3ca505d382bbc60001b8114610f3757806040517faa1d49a4000000000000000000000000000000000000000000000000000000008152600401610f2e919061156e565b60405180910390fd5b610f418383611038565b505050565b7f000000000000000000000000000000000000000000000000000000000000000073ffffffffffffffffffffffffffffffffffffffff163073ffffffffffffffffffffffffffffffffffffffff1614610fcb576040517fe07c8dba00000000000000000000000000000000000000000000000000000000815260040160405180910390fd5b565b600080610fd86110ab565b90508091505090565b600061100f7f360894a13ba1a3210667c828492db98dca3e2076cc3735a920a3ca505d382bbc60001b6110d6565b60000160009054906101000a900473ffffffffffffffffffffffffffffffffffffffff16905090565b611041826110e0565b8173ffffffffffffffffffffffffffffffffffffffff167fbc7cd75a20ee27fd9adebab32041f755214dbc6bffa90cc0225b39da2e5c2d3b60405160405180910390a260008151111561109e5761109882826111ad565b506110a7565b6110a6611231565b5b5050565b60007ff0c57e16840df040f15088dc2f81fe391c3923bec73e23a9662efc9c229c6a0060001b905090565b6000819050919050565b60008173ffffffffffffffffffffffffffffffffffffffff163b0361113c57806040517f4c9c8ce300000000000000000000000000000000000000000000000000000000815260040161113391906117ba565b60405180910390fd5b806111697f360894a13ba1a3210667c828492db98dca3e2076cc3735a920a3ca505d382bbc60001b6110d6565b60000160006101000a81548173ffffffffffffffffffffffffffffffffffffffff021916908373ffffffffffffffffffffffffffffffffffffffff16021790555050565b60606000808473ffffffffffffffffffffffffffffffffffffffff16846040516111d79190611e73565b600060405180830381855af49150503d8060008114611212576040519150601f19603f3d011682016040523d82523d6000602084013e611217565b606091505b509150915061122785838361126e565b9250505092915050565b600034111561126c576040517fb398979f00000000000000000000000000000000000000000000000000000000815260040160405180910390fd5b565b6060826112835761127e826112fd565b6112f5565b600082511480156112ab575060008473ffffffffffffffffffffffffffffffffffffffff163b145b156112ed57836040517f9996b3150000000000000000000000000000000000000000000000000000000081526004016112e491906117ba565b60405180910390fd5b8190506112f6565b5b9392505050565b60008151111561130f57805160208201fd5b6040517fd6bda27500000000000000000000000000000000000000000000000000000000815260040160405180910390fd5b6000604051905090565b600080fd5b600080fd5b600073ffffffffffffffffffffffffffffffffffffffff82169050919050565b600061138082611355565b9050919050565b61139081611375565b811461139b57600080fd5b50565b6000813590506113ad81611387565b92915050565b600080fd5b600080fd5b6000601f19601f8301169050919050565b7f4e487b7100000000000000000000000000000000000000000000000000000000600052604160045260246000fd5b611406826113bd565b810181811067ffffffffffffffff82111715611425576114246113ce565b5b80604052505050565b6000611438611341565b905061144482826113fd565b919050565b600067ffffffffffffffff821115611464576114636113ce565b5b61146d826113bd565b9050602081019050919050565b82818337600083830152505050565b600061149c61149784611449565b61142e565b9050828152602081018484840111156114b8576114b76113b8565b5b6114c384828561147a565b509392505050565b600082601f8301126114e0576114df6113b3565b5b81356114f0848260208601611489565b91505092915050565b600080604083850312156115105761150f61134b565b5b600061151e8582860161139e565b925050602083013567ffffffffffffffff81111561153f5761153e611350565b5b61154b858286016114cb565b9150509250929050565b6000819050919050565b61156881611555565b82525050565b6000602082019050611583600083018461155f565b92915050565b6000819050919050565b61159c81611589565b81146115a757600080fd5b50565b6000813590506115b981611593565b92915050565b6000602082840312156115d5576115d461134b565b5b60006115e3848285016115aa565b91505092915050565b6115f581611375565b82525050565b61160481611589565b82525050565b60008115159050919050565b61161f8161160a565b82525050565b60006101208201905061163b600083018c6115ec565b611648602083018b6115fb565b611655604083018a6115fb565b61166260608301896115fb565b61166f6080830188611616565b61167c60a08301876115ec565b61168960c08301866115fb565b61169660e08301856115ec565b6116a46101008301846115fb565b9a9950505050505050505050565b600081519050919050565b600082825260208201905092915050565b60005b838110156116ec5780820151818401526020810190506116d1565b60008484015250505050565b6000611703826116b2565b61170d81856116bd565b935061171d8185602086016116ce565b611726816113bd565b840191505092915050565b6000602082019050818103600083015261174b81846116f8565b905092915050565b6000806000806080858703121561176d5761176c61134b565b5b600061177b878288016115aa565b945050602061178c878288016115aa565b935050604061179d8782880161139e565b92505060606117ae878288016115aa565b91505092959194509250565b60006020820190506117cf60008301846115ec565b92915050565b60006020820190506117ea60008301846115fb565b92915050565b6000819050919050565b600067ffffffffffffffff82169050919050565b6000819050919050565b600061183361182e611829846117f0565b61180e565b6117fa565b9050919050565b61184381611818565b82525050565b600060208201905061185e600083018461183a565b92915050565b7f41756374696f6e20686173206265656e20656e64656400000000000000000000600082015250565b600061189a6016836116bd565b91506118a582611864565b602082019050919050565b600060208201905081810360008301526118c98161188d565b9050919050565b7f4e487b7100000000000000000000000000000000000000000000000000000000600052601160045260246000fd5b600061190a82611589565b915061191583611589565b925082820190508082111561192d5761192c6118d0565b5b92915050565b7f41756374696f6e2074696d652068617320657870697265640000000000000000600082015250565b60006119696018836116bd565b915061197482611933565b602082019050919050565b600060208201905081810360008301526119988161195c565b9050919050565b7f426964206d75737420626520686967686572207468616e2063757272656e742060008201527f6869676865737420626964000000000000000000000000000000000000000000602082015250565b60006119fb602b836116bd565b9150611a068261199f565b604082019050919050565b60006020820190508181036000830152611a2a816119ee565b9050919050565b7f426964206d757374206265206174206c6561737420746865207374617274696e60008201527f6720707269636500000000000000000000000000000000000000000000000000602082015250565b6000611a8d6027836116bd565b9150611a9882611a31565b604082019050919050565b60006020820190508181036000830152611abc81611a80565b9050919050565b7f4f6e6c792061646d696e2063616e206372656174652061756374696f6e730000600082015250565b6000611af9601e836116bd565b9150611b0482611ac3565b602082019050919050565b60006020820190508181036000830152611b2881611aec565b9050919050565b7f5374617274207072696365206d7573742062652067726561746572207468616e60008201527f2030000000000000000000000000000000000000000000000000000000000000602082015250565b6000611b8b6022836116bd565b9150611b9682611b2f565b604082019050919050565b60006020820190508181036000830152611bba81611b7e565b9050919050565b7f4475726174696f6e206d7573742062652067726561746572207468616e20313060008201527f7300000000000000000000000000000000000000000000000000000000000000602082015250565b6000611c1d6021836116bd565b9150611c2882611bc1565b604082019050919050565b60006020820190508181036000830152611c4c81611c10565b9050919050565b6000604082019050611c6860008301856115ec565b611c7560208301846115fb565b9392505050565b6000611c8782611589565b91507fffffffffffffffffffffffffffffffffffffffffffffffffffffffffffffffff8203611cb957611cb86118d0565b5b600182019050919050565b7f41756374696f6e206e6f742079657420656e6465640000000000000000000000600082015250565b6000611cfa6015836116bd565b9150611d0582611cc4565b602082019050919050565b60006020820190508181036000830152611d2981611ced565b9050919050565b6000606082019050611d4560008301866115ec565b611d5260208301856115ec565b611d5f60408301846115fb565b949350505050565b7f4f6e6c792061646d696e2063616e207570677261646500000000000000000000600082015250565b6000611d9d6016836116bd565b9150611da882611d67565b602082019050919050565b60006020820190508181036000830152611dcc81611d90565b9050919050565b611ddc81611555565b8114611de757600080fd5b50565b600081519050611df981611dd3565b92915050565b600060208284031215611e1557611e1461134b565b5b6000611e2384828501611dea565b91505092915050565b600081519050919050565b600081905092915050565b6000611e4d82611e2c565b611e578185611e37565b9350611e678185602086016116ce565b80840191505092915050565b6000611e7f8284611e42565b91508190509291505056fea26469706673582212204016a0e54ad3f4259a2ec2c2892d6da7c623e7a814702a1e108ba9032e51640a64736f6c634300081c0033",
  "linkReferences": {},
  "deployedLinkReferences": {}
}